{
  "address": "0x4781daeA2E71149C7e9d4BDCfF3A0aaa0DDcC3a6",
  "abi": [
    {
      "anonymous": false,
      "inputs": [
        {
          "indexed": false,
          "internalType": "address",
          "name": "_from",
          "type": "address"
        },
        {
          "indexed": false,
          "internalType": "uint256",
          "name": "_gameId",
          "type": "uint256"
        },
        {
          "indexed": false,
          "internalType": "uint256",
          "name": "_value",
          "type": "uint256"
        }
      ],
      "name": "BetPlaced",
      "type": "event"
    },
    {
      "anonymous": false,
      "inputs": [
        {
          "components": [
            {
              "internalType": "address[]",
              "name": "players",
              "type": "address[]"
            },
            {
              "internalType": "address",
              "name": "winner",
              "type": "address"
            },
            {
              "internalType": "uint8",
              "name": "lowScore",
              "type": "uint8"
            },
            {
              "internalType": "uint8[]",
              "name": "scores",
              "type": "uint8[]"
            },
            {
              "internalType": "uint256[]",
              "name": "bet",
              "type": "uint256[]"
            },
            {
              "internalType": "string",
              "name": "roomName",
              "type": "string"
            },
            {
              "internalType": "bool",
              "name": "initialized",
              "type": "bool"
            },
            {
              "internalType": "enum DiceGameFactory.Status",
              "name": "currentStatus",
              "type": "uint8"
            }
          ],
          "indexed": false,
          "internalType": "struct DiceGameFactory.Game",
          "name": "game",
          "type": "tuple"
        },
        {
          "indexed": false,
          "internalType": "string",
          "name": "message",
          "type": "string"
        }
      ],
      "name": "GameSet",
      "type": "event"
    },
    {
      "anonymous": false,
      "inputs": [
        {
          "indexed": true,
          "internalType": "address",
          "name": "previousOwner",
          "type": "address"
        },
        {
          "indexed": true,
          "internalType": "address",
          "name": "newOwner",
          "type": "address"
        }
      ],
      "name": "OwnershipTransferred",
      "type": "event"
    },
    {
      "inputs": [
        {
          "internalType": "uint256",
          "name": "_gameId",
          "type": "uint256"
        }
      ],
      "name": "checkBet",
      "outputs": [
        {
          "internalType": "uint256",
          "name": "",
          "type": "uint256"
        }
      ],
      "stateMutability": "view",
      "type": "function"
    },
    {
      "inputs": [
        {
          "internalType": "uint256",
          "name": "_gameId",
          "type": "uint256"
        }
      ],
      "name": "emergencyWithdraw",
      "outputs": [],
      "stateMutability": "payable",
      "type": "function"
    },
    {
      "inputs": [],
      "name": "getAllGames",
      "outputs": [
        {
          "components": [
            {
              "internalType": "address[]",
              "name": "players",
              "type": "address[]"
            },
            {
              "internalType": "address",
              "name": "winner",
              "type": "address"
            },
            {
              "internalType": "uint8",
              "name": "lowScore",
              "type": "uint8"
            },
            {
              "internalType": "uint8[]",
              "name": "scores",
              "type": "uint8[]"
            },
            {
              "internalType": "uint256[]",
              "name": "bet",
              "type": "uint256[]"
            },
            {
              "internalType": "string",
              "name": "roomName",
              "type": "string"
            },
            {
              "internalType": "bool",
              "name": "initialized",
              "type": "bool"
            },
            {
              "internalType": "enum DiceGameFactory.Status",
              "name": "currentStatus",
              "type": "uint8"
            }
          ],
          "internalType": "struct DiceGameFactory.Game[]",
          "name": "",
          "type": "tuple[]"
        }
      ],
      "stateMutability": "view",
      "type": "function"
    },
    {
      "inputs": [
        {
          "internalType": "uint256",
          "name": "_gameId",
          "type": "uint256"
        }
      ],
      "name": "getGame",
      "outputs": [
        {
          "components": [
            {
              "internalType": "address[]",
              "name": "players",
              "type": "address[]"
            },
            {
              "internalType": "address",
              "name": "winner",
              "type": "address"
            },
            {
              "internalType": "uint8",
              "name": "lowScore",
              "type": "uint8"
            },
            {
              "internalType": "uint8[]",
              "name": "scores",
              "type": "uint8[]"
            },
            {
              "internalType": "uint256[]",
              "name": "bet",
              "type": "uint256[]"
            },
            {
              "internalType": "string",
              "name": "roomName",
              "type": "string"
            },
            {
              "internalType": "bool",
              "name": "initialized",
              "type": "bool"
            },
            {
              "internalType": "enum DiceGameFactory.Status",
              "name": "currentStatus",
              "type": "uint8"
            }
          ],
          "internalType": "struct DiceGameFactory.Game",
          "name": "",
          "type": "tuple"
        }
      ],
      "stateMutability": "view",
      "type": "function"
    },
    {
      "inputs": [
        {
          "internalType": "string",
          "name": "_roomName",
          "type": "string"
        }
      ],
      "name": "getGameId",
      "outputs": [
        {
          "internalType": "uint256",
          "name": "",
          "type": "uint256"
        }
      ],
      "stateMutability": "view",
      "type": "function"
    },
    {
      "inputs": [
        {
          "internalType": "uint256",
          "name": "_gameId",
          "type": "uint256"
        }
      ],
      "name": "getStatus",
      "outputs": [
        {
          "internalType": "enum DiceGameFactory.Status",
          "name": "",
          "type": "uint8"
        }
      ],
      "stateMutability": "view",
      "type": "function"
    },
    {
      "inputs": [
        {
          "internalType": "uint256",
          "name": "_gameId",
          "type": "uint256"
        }
      ],
      "name": "getTotalBet",
      "outputs": [
        {
          "internalType": "uint256",
          "name": "",
          "type": "uint256"
        }
      ],
      "stateMutability": "view",
      "type": "function"
    },
    {
      "inputs": [
        {
          "internalType": "uint256",
          "name": "_gameId",
          "type": "uint256"
        }
      ],
      "name": "joinGame",
      "outputs": [],
      "stateMutability": "nonpayable",
      "type": "function"
    },
    {
      "inputs": [],
      "name": "newGame",
      "outputs": [],
      "stateMutability": "nonpayable",
      "type": "function"
    },
    {
      "inputs": [],
      "name": "owner",
      "outputs": [
        {
          "internalType": "address",
          "name": "",
          "type": "address"
        }
      ],
      "stateMutability": "view",
      "type": "function"
    },
    {
      "inputs": [
        {
          "internalType": "uint256",
          "name": "_gameId",
          "type": "uint256"
        }
      ],
      "name": "payWinner",
      "outputs": [],
      "stateMutability": "payable",
      "type": "function"
    },
    {
      "inputs": [],
      "name": "placeBet",
      "outputs": [],
      "stateMutability": "payable",
      "type": "function"
    },
    {
      "inputs": [],
      "name": "renounceOwnership",
      "outputs": [],
      "stateMutability": "nonpayable",
      "type": "function"
    },
    {
      "inputs": [
        {
          "internalType": "string",
          "name": "_roomName",
          "type": "string"
        }
      ],
      "name": "setGame",
      "outputs": [],
      "stateMutability": "nonpayable",
      "type": "function"
    },
    {
      "inputs": [
        {
          "internalType": "uint256",
          "name": "_gameId",
          "type": "uint256"
        },
        {
          "internalType": "uint8",
          "name": "_score",
          "type": "uint8"
        }
      ],
      "name": "setScore",
      "outputs": [],
      "stateMutability": "nonpayable",
      "type": "function"
    },
    {
      "inputs": [
        {
          "internalType": "address",
          "name": "newOwner",
          "type": "address"
        }
      ],
      "name": "transferOwnership",
      "outputs": [],
      "stateMutability": "nonpayable",
      "type": "function"
    },
    {
      "stateMutability": "payable",
      "type": "receive"
    }
  ],
  "transactionHash": "0x6e171f34091d00c133300feeab828e987b5b926e69fb0b6dd13e7d521f133474",
  "args": [],
  "solcInputHash": "5de0c4828c0b9830de3525883872d63a",
  "bytecode": "0x6080604052600060015534801561001557600080fd5b5061001f33610024565b610074565b600080546001600160a01b038381166001600160a01b0319831681178455604051919092169283917f8be0079c531659141344cd1fd0a4f28419497f9722a3daafe3b4186f6b6457e09190a35050565b612859806100836000396000f3fe6080604052600436106100f75760003560e01c8063a2f77bcc1161008a578063f2fde38b11610059578063f2fde38b1461028c578063f324796f146102ac578063f4cb5bde146102cc578063f90f4560146102ec57600080fd5b8063a2f77bcc1461020a578063a5c0449f14610237578063db1c45f91461024a578063efaa55a01461026c57600080fd5b8063715018a6116100c6578063715018a6146101985780637d03f5f3146101ad57806387f7777d146101c25780638da5cb5b146101e257600080fd5b806327cafc171461010357806347ee985f146101365780635312ea8e146101585780635c622a0e1461016b57600080fd5b366100fe57005b600080fd5b34801561010f57600080fd5b5061012361011e366004611b3e565b6102f4565b6040519081526020015b60405180910390f35b34801561014257600080fd5b50610156610151366004611b3e565b61031c565b005b610156610166366004611be8565b6103c2565b34801561017757600080fd5b5061018b610186366004611be8565b610612565b60405161012d9190612638565b3480156101a457600080fd5b50610156610657565b3480156101b957600080fd5b5061015661068d565b3480156101ce57600080fd5b506101236101dd366004611be8565b610878565b3480156101ee57600080fd5b506000546040516001600160a01b03909116815260200161012d565b34801561021657600080fd5b5061022a610225366004611be8565b610889565b60405161012d919061267b565b610156610245366004611be8565b610b59565b34801561025657600080fd5b5061025f610cf6565b60405161012d91906125d7565b34801561027857600080fd5b50610156610287366004611be8565b610fa2565b34801561029857600080fd5b506101566102a7366004611b10565b6111a7565b3480156102b857600080fd5b506101566102c7366004611c00565b611242565b3480156102d857600080fd5b506101236102e7366004611be8565b6113f1565b6101566114fb565b600060038260405161030691906125bb565b9081526020016040518091039020549050919050565b3360009081526002602052604090205461033681836116dc565b8060038360405161034791906125bb565b9081526020016040518091039020819055507fa2b9f243a380551bb43d90fe3194043eeaed44155af22fc230fa6f4ac7759a056005828154811061039b57634e487b7160e01b600052603260045260246000fd5b90600052602060002090600602016040516103b69190612709565b60405180910390a15050565b6000546001600160a01b031633146103f55760405162461bcd60e51b81526004016103ec90612646565b60405180910390fd5b60006005828154811061041857634e487b7160e01b600052603260045260246000fd5b9060005260206000209060060201905060005b815481101561060d57600082600301828154811061045957634e487b7160e01b600052603260045260246000fd5b9060005260206000200154905082600301828154811061048957634e487b7160e01b600052603260045260246000fd5b90600052602060002001548360030183815481106104b757634e487b7160e01b600052603260045260246000fd5b9060005260206000200160008282546104d0919061275e565b925050819055506000808460000184815481106104fd57634e487b7160e01b600052603260045260246000fd5b60009182526020822001546040516001600160a01b039091169185919081818185875af1925050503d8060008114610551576040519150601f19603f3d011682016040523d82523d6000602084013e610556565b606091505b5091509150816105a85760405162461bcd60e51b815260206004820152601e60248201527f4661696c656420746f2073656e6420457468657220746f2077696e6e6572000060448201526064016103ec565b60648560020185815481106105cd57634e487b7160e01b600052603260045260246000fd5b90600052602060002090602091828204019190066101000a81548160ff021916908360ff1602179055505050508080610605906127dc565b91505061042b565b505050565b60006005828154811061063557634e487b7160e01b600052603260045260246000fd5b6000918252602090912060069091020160050154610100900460ff1692915050565b6000546001600160a01b031633146106815760405162461bcd60e51b81526004016103ec90612646565b61068b60006117a6565b565b6060600060608060606000604051806101000160405280878152602001866001600160a01b03168152602001603260ff168152602001858152602001848152602001838152602001600015158152602001600060028111156106ff57634e487b7160e01b600052602160045260246000fd5b90526005805460018101825560009190915281518051929350839260069092027f036b6384b5eca791c62761152d0c79bb0604c104a5fb6f4eb0703f3154bb3db0019161075491839160209190910190611907565b50602082810151600183018054604086015160ff16600160a01b026001600160a81b03199091166001600160a01b0390931692909217919091179055606083015180516107a7926002850192019061196c565b50608082015180516107c3916003840191602090910190611a0d565b5060a082015180516107df916004840191602090910190611a48565b5060c082015160058201805491151560ff1983168117825560e08501519261ff001990911661ffff199091161761010083600281111561082f57634e487b7160e01b600052602160045260246000fd5b021790555050600180543360009081526002602090815260408083209390935560049052908120805460ff191690558154925061086b836127dc565b9190505550505050505050565b6000610883826113f1565b92915050565b6108cd604080516101008101825260608082526000602083018190529282018390528082018190526080820181905260a082015260c081018290529060e082015290565b600582815481106108ee57634e487b7160e01b600052603260045260246000fd5b9060005260206000209060060201604051806101000160405290816000820180548060200260200160405190810160405280929190818152602001828054801561096157602002820191906000526020600020905b81546001600160a01b03168152600190910190602001808311610943575b505050918352505060018201546001600160a01b038116602080840191909152600160a01b90910460ff166040808401919091526002840180548251818502810185019093528083526060909401939192909190830182828015610a0257602002820191906000526020600020906000905b825461010083900a900460ff168152602060019283018181049485019490930390920291018084116109d35790505b5050505050815260200160038201805480602002602001604051908101604052809291908181526020018280548015610a5a57602002820191906000526020600020905b815481526020019060010190808311610a46575b50505050508152602001600482018054610a73906127a1565b80601f0160208091040260200160405190810160405280929190818152602001828054610a9f906127a1565b8015610aec5780601f10610ac157610100808354040283529160200191610aec565b820191906000526020600020905b815481529060010190602001808311610acf57829003601f168201915b5050509183525050600582015460ff80821615156020840152604090920191610100909104166002811115610b3157634e487b7160e01b600052602160045260246000fd5b6002811115610b5057634e487b7160e01b600052602160045260246000fd5b90525092915050565b6002610b6482610612565b6002811115610b8357634e487b7160e01b600052602160045260246000fd5b14610bc55760405162461bcd60e51b815260206004820152601260248201527111d85b59481a185cc81b9bdd08195b99195960721b60448201526064016103ec565b600060058281548110610be857634e487b7160e01b600052603260045260246000fd5b906000526020600020906006020190506000610c03836113f1565b9050610c0e826117f6565b600182015460405160009182916001600160a01b039091169084908381818185875af1925050503d8060008114610c61576040519150601f19603f3d011682016040523d82523d6000602084013e610c66565b606091505b509150915081610cb85760405162461bcd60e51b815260206004820152601e60248201527f4661696c656420746f2073656e6420457468657220746f2077696e6e6572000060448201526064016103ec565b7fa2b9f243a380551bb43d90fe3194043eeaed44155af22fc230fa6f4ac7759a0584604051610ce7919061268e565b60405180910390a15050505050565b60606005805480602002602001604051908101604052809291908181526020016000905b82821015610f9957838290600052602060002090600602016040518061010001604052908160008201805480602002602001604051908101604052809291908181526020018280548015610d9757602002820191906000526020600020905b81546001600160a01b03168152600190910190602001808311610d79575b505050918352505060018201546001600160a01b038116602080840191909152600160a01b90910460ff166040808401919091526002840180548251818502810185019093528083526060909401939192909190830182828015610e3857602002820191906000526020600020906000905b825461010083900a900460ff16815260206001928301818104948501949093039092029101808411610e095790505b5050505050815260200160038201805480602002602001604051908101604052809291908181526020018280548015610e9057602002820191906000526020600020905b815481526020019060010190808311610e7c575b50505050508152602001600482018054610ea9906127a1565b80601f0160208091040260200160405190810160405280929190818152602001828054610ed5906127a1565b8015610f225780601f10610ef757610100808354040283529160200191610f22565b820191906000526020600020905b815481529060010190602001808311610f0557829003601f168201915b5050509183525050600582015460ff80821615156020840152604090920191610100909104166002811115610f6757634e487b7160e01b600052602160045260246000fd5b6002811115610f8657634e487b7160e01b600052602160045260246000fd5b8152505081526020019060010190610d1a565b50505050905090565b3360009081526002602052604090205481908114156110035760405162461bcd60e51b815260206004820152601b60248201527f506c6179657220616c726561647920696e20746869732067616d65000000000060448201526064016103ec565b60006005838154811061102657634e487b7160e01b600052603260045260246000fd5b60009182526020822060069091020191506005820154610100900460ff16600281111561106357634e487b7160e01b600052602160045260246000fd5b146110bc5760405162461bcd60e51b815260206004820152602360248201527f43616e6e6f74206a6f696e20756e74696c206e65787420726f756e6420626567604482015262696e7360e81b60648201526084016103ec565b33600081815260026020818152604083208790558454600181810187558685529190932090920180546001600160a01b03191690931790925590820154611103919061275e565b336000908152600460209081526040808320805460ff95861660ff1990911617905560028501805460018181018355918552838520848204018054601f9092166101000a60648102970219909116959095179094556003850180549485018155835290822090920155517fa2b9f243a380551bb43d90fe3194043eeaed44155af22fc230fa6f4ac7759a059061119a9083906126cc565b60405180910390a1505050565b6000546001600160a01b031633146111d15760405162461bcd60e51b81526004016103ec90612646565b6001600160a01b0381166112365760405162461bcd60e51b815260206004820152602660248201527f4f776e61626c653a206e6577206f776e657220697320746865207a65726f206160448201526564647265737360d01b60648201526084016103ec565b61123f816117a6565b50565b600161124d83610612565b600281111561126c57634e487b7160e01b600052602160045260246000fd5b146112cb5760405162461bcd60e51b815260206004820152602960248201527f5468697320616374696f6e2063616e6e6f7420626520706572666f726d6564206044820152687269676874206e6f7760b81b60648201526084016103ec565b6000600583815481106112ee57634e487b7160e01b600052603260045260246000fd5b6000918252602080832033845260049091526040909220546002600690920290920190810180549193508492909160ff90911690811061133e57634e487b7160e01b600052603260045260246000fd5b90600052602060002090602091828204019190066101000a81548160ff021916908360ff1602179055508160ff168160010160149054906101000a900460ff1660ff1611156113b3576001810180546001600160a01b031960ff8516600160a01b02166001600160a81b031990911617331790555b60028101546113c49060019061275e565b3360009081526004602052604090205460ff16141561060d57600501805461ff0019166102001790555050565b60008060005b6005848154811061141857634e487b7160e01b600052603260045260246000fd5b60009182526020909120600690910201548110156114f45760016005858154811061145357634e487b7160e01b600052603260045260246000fd5b906000526020600020906006020160030180549050611472919061275e565b81116114e2576005848154811061149957634e487b7160e01b600052603260045260246000fd5b906000526020600020906006020160030181815481106114c957634e487b7160e01b600052603260045260246000fd5b9060005260206000200154826114df9190612746565b91505b806114ec816127dc565b9150506113f7565b5092915050565b600034116115445760405162461bcd60e51b815260206004820152601660248201527506d7573742062652067726561746572207468616e20360541b60448201526064016103ec565b336000908152600260205260408120549061155e82610612565b600281111561157d57634e487b7160e01b600052602160045260246000fd5b146115d65760405162461bcd60e51b815260206004820152602360248201527f4265747320617265206e6f74206265696e6720706c61636564207269676874206044820152626e6f7760e81b60648201526084016103ec565b336000908152600460205260408120546005805460ff90921692918490811061160f57634e487b7160e01b600052603260045260246000fd5b906000526020600020906006020190503481600301838154811061164357634e487b7160e01b600052603260045260246000fd5b90600052602060002001600082825461165c9190612746565b909155505060028101546116729060019061275e565b3360009081526004602052604090205460ff16141561169d5760058101805461ff0019166101001790555b604080513381526020810185905234918101919091527e1ecf1d0c4d22f324b3ecb9cdf0e5f772bc74ac104e6626f4b3845433d031059060600161119a565b6000600583815481106116ff57634e487b7160e01b600052603260045260246000fd5b60009182526020909120600690910201600581015490915060ff1661060d5760058101805460ff19166001908117909155604080516020810190915233815261174a91839190611907565b5060408051602081019091526064815261176a906002830190600161196c565b5060408051602081019091526000815261178a9060038301906001611abb565b5081516117a09060048301906020850190611a48565b50505050565b600080546001600160a01b038381166001600160a01b0319831681178455604051919092169283917f8be0079c531659141344cd1fd0a4f28419497f9722a3daafe3b4186f6b6457e09190a35050565b6117ff8161182b565b611808816118a0565b60018101805460ff60a01b1916601960a11b179055600501805461ff0019169055565b60005b600282015481101561189c57606482600201828154811061185f57634e487b7160e01b600052603260045260246000fd5b90600052602060002090602091828204019190066101000a81548160ff021916908360ff1602179055508080611894906127dc565b91505061182e565b5050565b60005b815481101561189c5760038201546118bd9060019061275e565b81116118f55760008260030182815481106118e857634e487b7160e01b600052603260045260246000fd5b6000918252602090912001555b806118ff816127dc565b9150506118a3565b82805482825590600052602060002090810192821561195c579160200282015b8281111561195c57825182546001600160a01b0319166001600160a01b03909116178255602090920191600190910190611927565b50611968929150611afb565b5090565b82805482825590600052602060002090601f0160209004810192821561195c5791602002820160005b838211156119d357835183826101000a81548160ff021916908360ff1602179055509260200192600101602081600001049283019260010302611995565b8015611a005782816101000a81549060ff02191690556001016020816000010492830192600103026119d3565b5050611968929150611afb565b82805482825590600052602060002090810192821561195c579160200282015b8281111561195c578251825591602001919060010190611a2d565b828054611a54906127a1565b90600052602060002090601f016020900481019282611a76576000855561195c565b82601f10611a8f57805160ff191683800117855561195c565b8280016001018555821561195c579182018281111561195c578251825591602001919060010190611a2d565b82805482825590600052602060002090810192821561195c579160200282015b8281111561195c578251829060ff16905591602001919060010190611adb565b5b808211156119685760008155600101611afc565b600060208284031215611b21578081fd5b81356001600160a01b0381168114611b37578182fd5b9392505050565b600060208284031215611b4f578081fd5b813567ffffffffffffffff80821115611b66578283fd5b818401915084601f830112611b79578283fd5b813581811115611b8b57611b8b61280d565b604051601f8201601f19908116603f01168101908382118183101715611bb357611bb361280d565b81604052828152876020848701011115611bcb578586fd5b826020860160208301379182016020019490945295945050505050565b600060208284031215611bf9578081fd5b5035919050565b60008060408385031215611c12578081fd5b82359150602083013560ff81168114611c29578182fd5b809150509250929050565b6000815180845260208085019450808401835b83811015611c6c5781516001600160a01b031687529582019590820190600101611c47565b509495945050505050565b6000815480845260208085019450838352808320835b83811015611c6c5781546001600160a01b031687529582019560019182019101611c8d565b6000815180845260208085019450808401835b83811015611c6c57815187529582019590820190600101611cc5565b6000815480845260208085019450838352808320835b83811015611c6c57815487529582019560019182019101611cf7565b6000815180845260208085019450808401835b83811015611c6c57815160ff1687529582019590820190600101611d26565b805480835260008281526020808220940193909190825b82601f82011015611fe357815460ff80821688526020611d85818a01838560081c1660ff169052565b6040611d9a818b01848660101c1660ff169052565b6060611daf818c01858760181c1660ff169052565b6080611dc3818d018688871c1660ff169052565b60a09350611dda848d01868860281c1660ff169052565b60c0611def818e01878960301c1660ff169052565b60e0611e04818f01888a60381c1660ff169052565b60ff88861c8816166101008f0152611e276101208f01888a60481c1660ff169052565b611e3c6101408f01888a60501c1660ff169052565b611e516101608f01888a60581c1660ff169052565b60ff88851c8816166101808f0152611e746101a08f01888a60681c1660ff169052565b611e896101c08f01888a60701c1660ff169052565b611e9e6101e08f01888a60781c1660ff169052565b60ff88841c8816166102008f0152611ec16102208f01888a60881c1660ff169052565b611ed66102408f01888a60901c1660ff169052565b611eeb6102608f01888a60981c1660ff169052565b60ff88871c8816166102808f0152611f0e6102a08f01888a60a81c1660ff169052565b611f236102c08f01888a60b01c1660ff169052565b611f386102e08f01888a60b81c1660ff169052565b60ff88831c8816166103008f0152611f5b6103208f01888a60c81c1660ff169052565b611f706103408f01888a60d01c1660ff169052565b611f856103608f01888a60d81c1660ff169052565b60ff88821c8816166103808f0152505050505050611fae6103a08901828460e81c1660ff169052565b611fc36103c08901828460f01c1660ff169052565b5060f81c6103e08701526104009095019460019190910190602001611d5c565b90549082811015611ffe5760ff821686526020909501946001015b8281101561201a5760ff600883901c1686526020909501946001015b828110156120365760ff601083901c1686526020909501946001015b828110156120525760ff601883901c1686526020909501946001015b8281101561206f57602082901c60ff168652602095909501946001015b8281101561208b5760ff602883901c1686526020909501946001015b828110156120a75760ff603083901c1686526020909501946001015b828110156120c35760ff603883901c1686526020909501946001015b828110156120df5760ff604083901c1686526020909501946001015b828110156120fb5760ff604883901c1686526020909501946001015b828110156121175760ff605083901c1686526020909501946001015b828110156121335760ff605883901c1686526020909501946001015b8281101561214f5760ff606083901c1686526020909501946001015b8281101561216b5760ff606883901c1686526020909501946001015b828110156121875760ff607083901c1686526020909501946001015b828110156121a35760ff607883901c1686526020909501946001015b828110156121bf5760ff608083901c1686526020909501946001015b828110156121db5760ff608883901c1686526020909501946001015b828110156121f75760ff609083901c1686526020909501946001015b828110156122135760ff609883901c1686526020909501946001015b8281101561222f5760ff60a083901c1686526020909501946001015b8281101561224b5760ff60a883901c1686526020909501946001015b828110156122675760ff60b083901c1686526020909501946001015b828110156122835760ff60b883901c1686526020909501946001015b8281101561229f5760ff60c083901c1686526020909501946001015b828110156122bb5760ff60c883901c1686526020909501946001015b828110156122d75760ff60d083901c1686526020909501946001015b828110156122f35760ff60d883901c1686526020909501946001015b8281101561230f5760ff60e083901c1686526020909501946001015b8281101561232b5760ff60e883901c1686526020909501946001015b828110156123475760ff60f083901c1686526020909501946001015b8281101561235d5760f882901c86526020860195505b5093949350505050565b6003811061238557634e487b7160e01b600052602160045260246000fd5b9052565b600081518084526123a1816020860160208601612775565b601f01601f19169290920160200192915050565b8054600090600181811c90808316806123cf57607f831692505b60208084108214156123ef57634e487b7160e01b86526022600452602486fd5b8388526020880182801561240a576001811461241b57612446565b60ff19871682528282019750612446565b60008981526020902060005b8781101561244057815484820152908601908401612427565b83019850505b5050505050505092915050565b6000610100825181855261246982860182611c34565b915050602083015161248660208601826001600160a01b03169052565b50604083015161249b604086018260ff169052565b50606083015184820360608601526124b38282611d13565b915050608083015184820360808601526124cd8282611cb2565b91505060a083015184820360a08601526124e78282612389565b91505060c08301516124fd60c086018215159052565b5060e083015161251060e0860182612367565b509392505050565b600061010080845261252c81850184611c77565b60018401546001600160a01b038116602087015260a01c60ff166040860152848103606086015290506125628160028501611d45565b905083810360808501526125798160038501611ce1565b905083810360a085015261259081600485016123b5565b905060058301546125a860c0860160ff831615159052565b61251060e0860160ff8360081c16612367565b600082516125cd818460208701612775565b9190910192915050565b6000602080830181845280855180835260408601915060408160051b8701019250838701855b8281101561262b57603f19888603018452612619858351612453565b945092850192908501906001016125fd565b5092979650505050505050565b602081016108838284612367565b6020808252818101527f4f776e61626c653a2063616c6c6572206973206e6f7420746865206f776e6572604082015260600190565b602081526000611b376020830184612453565b6040815260006126a16040830184612518565b8281036020840152600981526833b0b6b29037bb32b960b91b60208201526040810191505092915050565b6040815260006126df6040830184612518565b828103602084015260088152676a6f696e47616d6560c01b60208201526040810191505092915050565b60408152600061271c6040830184612518565b828103602084015260088152676e65772067616d6560c01b60208201526040810191505092915050565b60008219821115612759576127596127f7565b500190565b600082821015612770576127706127f7565b500390565b60005b83811015612790578181015183820152602001612778565b838111156117a05750506000910152565b600181811c908216806127b557607f821691505b602082108114156127d657634e487b7160e01b600052602260045260246000fd5b50919050565b60006000198214156127f0576127f06127f7565b5060010190565b634e487b7160e01b600052601160045260246000fd5b634e487b7160e01b600052604160045260246000fdfea2646970667358221220add5fb93811c1b5e19850ba8ff65ff35b7bdda33239b6a8bc5996a823ca97a2164736f6c63430008040033",
  "devdoc": {
    "kind": "dev",
    "methods": {
      "emergencyWithdraw(uint256)": {
        "params": {
          "_gameId": "The index of the game in the games array for lookup"
        }
      },
      "getAllGames()": {
        "returns": {
          "_0": "All games in storage"
        }
      },
      "getGame(uint256)": {
        "params": {
          "_gameId": "The ID number/Index number of the game"
        },
        "returns": {
          "_0": "The details of the game"
        }
      },
      "getGameId(string)": {
        "params": {
          "_roomName": "The name of the room for lookup"
        },
        "returns": {
          "_0": "The index of the game in the games array"
        }
      },
      "getStatus(uint256)": {
        "params": {
          "_gameId": "The index of the game in the games array for lookup"
        }
      },
      "joinGame(uint256)": {
        "params": {
          "_gameId": "The index of the game in the games array"
        }
      },
      "newGame()": {
        "details": "Must be initialized resulting in two transactions for new games"
      },
      "owner()": {
        "details": "Returns the address of the current owner."
      },
      "renounceOwnership()": {
        "details": "Leaves the contract without owner. It will not be possible to call `onlyOwner` functions anymore. Can only be called by the current owner. NOTE: Renouncing ownership will leave the contract without an owner, thereby removing any functionality that is only available to the owner."
      },
      "setGame(string)": {
        "params": {
          "_roomName": "The name to initialize the new game with"
        }
      },
      "transferOwnership(address)": {
        "details": "Transfers ownership of the contract to a new account (`newOwner`). Can only be called by the current owner."
      }
    },
    "version": 1
  },
  "userdoc": {
    "kind": "user",
    "methods": {
      "emergencyWithdraw(uint256)": {
        "notice": "Returns all bets to respective users"
      },
      "getAllGames()": {
        "notice": "Retrieve all games ever created"
      },
      "getGame(uint256)": {
        "notice": "Retrieve a single game object"
      },
      "getGameId(string)": {
        "notice": "Uses room name to retrieve the game index"
      },
      "getStatus(uint256)": {
        "notice": "Returns the progress of the game"
      },
      "joinGame(uint256)": {
        "notice": "Join a game already in progress"
      },
      "newGame()": {
        "notice": "Adds a new empty game to storage"
      },
      "setGame(string)": {
        "notice": "Set the name and initial parameters of new games"
      }
    },
    "version": 1
  },
  "storageLayout": {
    "storage": [
      {
        "astId": 7,
        "contract": "contracts/DiceGame.sol:DiceGame",
        "label": "_owner",
        "offset": 0,
        "slot": "0",
        "type": "t_address"
      },
      {
        "astId": 520,
        "contract": "contracts/DiceGame.sol:DiceGame",
        "label": "gameCounter",
        "offset": 0,
        "slot": "1",
        "type": "t_uint256"
      },
      {
        "astId": 549,
        "contract": "contracts/DiceGame.sol:DiceGame",
        "label": "userToGameId",
        "offset": 0,
        "slot": "2",
        "type": "t_mapping(t_address,t_uint256)"
      },
      {
        "astId": 553,
        "contract": "contracts/DiceGame.sol:DiceGame",
        "label": "roomNameToIndex",
        "offset": 0,
        "slot": "3",
        "type": "t_mapping(t_string_memory_ptr,t_uint256)"
      },
      {
        "astId": 557,
        "contract": "contracts/DiceGame.sol:DiceGame",
        "label": "userToIndex",
        "offset": 0,
        "slot": "4",
        "type": "t_mapping(t_address,t_uint8)"
      },
      {
        "astId": 577,
        "contract": "contracts/DiceGame.sol:DiceGame",
        "label": "games",
        "offset": 0,
        "slot": "5",
        "type": "t_array(t_struct(Game)545_storage)dyn_storage"
      }
    ],
    "types": {
      "t_address": {
        "encoding": "inplace",
        "label": "address",
        "numberOfBytes": "20"
      },
      "t_array(t_address)dyn_storage": {
        "base": "t_address",
        "encoding": "dynamic_array",
        "label": "address[]",
        "numberOfBytes": "32"
      },
      "t_array(t_struct(Game)545_storage)dyn_storage": {
        "base": "t_struct(Game)545_storage",
        "encoding": "dynamic_array",
        "label": "struct DiceGameFactory.Game[]",
        "numberOfBytes": "32"
      },
      "t_array(t_uint256)dyn_storage": {
        "base": "t_uint256",
        "encoding": "dynamic_array",
        "label": "uint256[]",
        "numberOfBytes": "32"
      },
      "t_array(t_uint8)dyn_storage": {
        "base": "t_uint8",
        "encoding": "dynamic_array",
        "label": "uint8[]",
        "numberOfBytes": "32"
      },
      "t_bool": {
        "encoding": "inplace",
        "label": "bool",
        "numberOfBytes": "1"
      },
      "t_enum(Status)524": {
        "encoding": "inplace",
        "label": "enum DiceGameFactory.Status",
        "numberOfBytes": "1"
      },
      "t_mapping(t_address,t_uint256)": {
        "encoding": "mapping",
        "key": "t_address",
        "label": "mapping(address => uint256)",
        "numberOfBytes": "32",
        "value": "t_uint256"
      },
      "t_mapping(t_address,t_uint8)": {
        "encoding": "mapping",
        "key": "t_address",
        "label": "mapping(address => uint8)",
        "numberOfBytes": "32",
        "value": "t_uint8"
      },
      "t_mapping(t_string_memory_ptr,t_uint256)": {
        "encoding": "mapping",
        "key": "t_string_memory_ptr",
        "label": "mapping(string => uint256)",
        "numberOfBytes": "32",
        "value": "t_uint256"
      },
      "t_string_memory_ptr": {
        "encoding": "bytes",
        "label": "string",
        "numberOfBytes": "32"
      },
      "t_string_storage": {
        "encoding": "bytes",
        "label": "string",
        "numberOfBytes": "32"
      },
      "t_struct(Game)545_storage": {
        "encoding": "inplace",
        "label": "struct DiceGameFactory.Game",
        "members": [
          {
            "astId": 527,
            "contract": "contracts/DiceGame.sol:DiceGame",
            "label": "players",
            "offset": 0,
            "slot": "0",
            "type": "t_array(t_address)dyn_storage"
          },
          {
            "astId": 529,
            "contract": "contracts/DiceGame.sol:DiceGame",
            "label": "winner",
            "offset": 0,
            "slot": "1",
            "type": "t_address"
          },
          {
            "astId": 531,
            "contract": "contracts/DiceGame.sol:DiceGame",
            "label": "lowScore",
            "offset": 20,
            "slot": "1",
            "type": "t_uint8"
          },
          {
            "astId": 534,
            "contract": "contracts/DiceGame.sol:DiceGame",
            "label": "scores",
            "offset": 0,
            "slot": "2",
            "type": "t_array(t_uint8)dyn_storage"
          },
          {
            "astId": 537,
            "contract": "contracts/DiceGame.sol:DiceGame",
            "label": "bet",
            "offset": 0,
            "slot": "3",
            "type": "t_array(t_uint256)dyn_storage"
          },
          {
            "astId": 539,
            "contract": "contracts/DiceGame.sol:DiceGame",
            "label": "roomName",
            "offset": 0,
            "slot": "4",
            "type": "t_string_storage"
          },
          {
            "astId": 541,
            "contract": "contracts/DiceGame.sol:DiceGame",
            "label": "initialized",
            "offset": 0,
            "slot": "5",
            "type": "t_bool"
          },
          {
            "astId": 544,
            "contract": "contracts/DiceGame.sol:DiceGame",
            "label": "currentStatus",
            "offset": 1,
            "slot": "5",
            "type": "t_enum(Status)524"
          }
        ],
        "numberOfBytes": "192"
      },
      "t_uint256": {
        "encoding": "inplace",
        "label": "uint256",
        "numberOfBytes": "32"
      },
      "t_uint8": {
        "encoding": "inplace",
        "label": "uint8",
        "numberOfBytes": "1"
      }
    }
  }
}