{
  "address": "0x6948a4a01bE823356F563f64ce3CA43Ea3499583",
  "abi": [
    {
      "anonymous": false,
      "inputs": [
        {
          "indexed": false,
          "internalType": "address",
          "name": "_from",
          "type": "address"
        },
        {
          "indexed": false,
          "internalType": "uint256",
          "name": "_gameId",
          "type": "uint256"
        },
        {
          "indexed": false,
          "internalType": "uint256",
          "name": "_value",
          "type": "uint256"
        }
      ],
      "name": "BetPlaced",
      "type": "event"
    },
    {
      "anonymous": false,
      "inputs": [
        {
          "components": [
            {
              "internalType": "address[]",
              "name": "players",
              "type": "address[]"
            },
            {
              "internalType": "uint8",
              "name": "winnerIndex",
              "type": "uint8"
            },
            {
              "internalType": "uint8[]",
              "name": "scores",
              "type": "uint8[]"
            },
            {
              "internalType": "uint256[]",
              "name": "bets",
              "type": "uint256[]"
            },
            {
              "internalType": "bool",
              "name": "initialized",
              "type": "bool"
            },
            {
              "internalType": "enum DiceGameFactory.Status",
              "name": "currentStatus",
              "type": "uint8"
            }
          ],
          "indexed": false,
          "internalType": "struct DiceGameFactory.Game",
          "name": "game",
          "type": "tuple"
        },
        {
          "indexed": false,
          "internalType": "string",
          "name": "message",
          "type": "string"
        }
      ],
      "name": "GameSet",
      "type": "event"
    },
    {
      "anonymous": false,
      "inputs": [
        {
          "indexed": true,
          "internalType": "address",
          "name": "previousOwner",
          "type": "address"
        },
        {
          "indexed": true,
          "internalType": "address",
          "name": "newOwner",
          "type": "address"
        }
      ],
      "name": "OwnershipTransferred",
      "type": "event"
    },
    {
      "inputs": [
        {
          "internalType": "uint256",
          "name": "_gameId",
          "type": "uint256"
        }
      ],
      "name": "checkBet",
      "outputs": [
        {
          "internalType": "uint256",
          "name": "",
          "type": "uint256"
        }
      ],
      "stateMutability": "view",
      "type": "function"
    },
    {
      "inputs": [
        {
          "internalType": "uint256",
          "name": "_gameId",
          "type": "uint256"
        }
      ],
      "name": "emergencyWithdraw",
      "outputs": [],
      "stateMutability": "payable",
      "type": "function"
    },
    {
      "inputs": [],
      "name": "getAllGames",
      "outputs": [
        {
          "components": [
            {
              "internalType": "address[]",
              "name": "players",
              "type": "address[]"
            },
            {
              "internalType": "uint8",
              "name": "winnerIndex",
              "type": "uint8"
            },
            {
              "internalType": "uint8[]",
              "name": "scores",
              "type": "uint8[]"
            },
            {
              "internalType": "uint256[]",
              "name": "bets",
              "type": "uint256[]"
            },
            {
              "internalType": "bool",
              "name": "initialized",
              "type": "bool"
            },
            {
              "internalType": "enum DiceGameFactory.Status",
              "name": "currentStatus",
              "type": "uint8"
            }
          ],
          "internalType": "struct DiceGameFactory.Game[]",
          "name": "",
          "type": "tuple[]"
        }
      ],
      "stateMutability": "view",
      "type": "function"
    },
    {
      "inputs": [
        {
          "internalType": "uint256",
          "name": "_gameId",
          "type": "uint256"
        }
      ],
      "name": "getGame",
      "outputs": [
        {
          "components": [
            {
              "internalType": "address[]",
              "name": "players",
              "type": "address[]"
            },
            {
              "internalType": "uint8",
              "name": "winnerIndex",
              "type": "uint8"
            },
            {
              "internalType": "uint8[]",
              "name": "scores",
              "type": "uint8[]"
            },
            {
              "internalType": "uint256[]",
              "name": "bets",
              "type": "uint256[]"
            },
            {
              "internalType": "bool",
              "name": "initialized",
              "type": "bool"
            },
            {
              "internalType": "enum DiceGameFactory.Status",
              "name": "currentStatus",
              "type": "uint8"
            }
          ],
          "internalType": "struct DiceGameFactory.Game",
          "name": "",
          "type": "tuple"
        }
      ],
      "stateMutability": "view",
      "type": "function"
    },
    {
      "inputs": [
        {
          "internalType": "address",
          "name": "_address",
          "type": "address"
        }
      ],
      "name": "getGameId",
      "outputs": [
        {
          "internalType": "uint256",
          "name": "",
          "type": "uint256"
        }
      ],
      "stateMutability": "view",
      "type": "function"
    },
    {
      "inputs": [
        {
          "internalType": "uint256",
          "name": "_gameId",
          "type": "uint256"
        }
      ],
      "name": "getStatus",
      "outputs": [
        {
          "internalType": "enum DiceGameFactory.Status",
          "name": "",
          "type": "uint8"
        }
      ],
      "stateMutability": "view",
      "type": "function"
    },
    {
      "inputs": [
        {
          "internalType": "uint256",
          "name": "_gameId",
          "type": "uint256"
        }
      ],
      "name": "getTotalBet",
      "outputs": [
        {
          "internalType": "uint256",
          "name": "",
          "type": "uint256"
        }
      ],
      "stateMutability": "view",
      "type": "function"
    },
    {
      "inputs": [
        {
          "internalType": "address",
          "name": "_address",
          "type": "address"
        }
      ],
      "name": "joinGame",
      "outputs": [],
      "stateMutability": "nonpayable",
      "type": "function"
    },
    {
      "inputs": [],
      "name": "newGame",
      "outputs": [],
      "stateMutability": "nonpayable",
      "type": "function"
    },
    {
      "inputs": [],
      "name": "owner",
      "outputs": [
        {
          "internalType": "address",
          "name": "",
          "type": "address"
        }
      ],
      "stateMutability": "view",
      "type": "function"
    },
    {
      "inputs": [],
      "name": "payWinner",
      "outputs": [],
      "stateMutability": "payable",
      "type": "function"
    },
    {
      "inputs": [],
      "name": "placeBet",
      "outputs": [],
      "stateMutability": "payable",
      "type": "function"
    },
    {
      "inputs": [],
      "name": "renounceOwnership",
      "outputs": [],
      "stateMutability": "nonpayable",
      "type": "function"
    },
    {
      "inputs": [],
      "name": "setGame",
      "outputs": [],
      "stateMutability": "nonpayable",
      "type": "function"
    },
    {
      "inputs": [
        {
          "internalType": "uint8",
          "name": "_score",
          "type": "uint8"
        }
      ],
      "name": "setScore",
      "outputs": [],
      "stateMutability": "nonpayable",
      "type": "function"
    },
    {
      "inputs": [
        {
          "internalType": "address",
          "name": "newOwner",
          "type": "address"
        }
      ],
      "name": "transferOwnership",
      "outputs": [],
      "stateMutability": "nonpayable",
      "type": "function"
    },
    {
      "stateMutability": "payable",
      "type": "receive"
    }
  ],
  "transactionHash": "0xeb817991e2f3c86d5da98b4f2d1747721cfb97719364d3be995598bcb8cc9cc6",
  "args": [],
  "solcInputHash": "ebfa68f1b624e9bd7c48b1db993d25c6",
  "bytecode": "0x6080604052600060015534801561001557600080fd5b5061001f33610024565b610074565b600080546001600160a01b038381166001600160a01b0319831681178455604051919092169283917f8be0079c531659141344cd1fd0a4f28419497f9722a3daafe3b4186f6b6457e09190a35050565b6124cb806100836000396000f3fe6080604052600436106100f75760003560e01c80638da5cb5b1161008a578063db1c45f911610059578063db1c45f91461028e578063f2fde38b146102b0578063f4cb5bde146102d0578063f90f4560146102f057600080fd5b80638da5cb5b146101fb578063a2f77bcc14610223578063abfd6da514610250578063be71248a1461028657600080fd5b8063715018a6116100c6578063715018a6146101835780637918b0f3146101985780637d03f5f3146101b857806387f7777d146101cd57600080fd5b80632389a290146101035780635312ea8e146101255780635564a08e146101385780635c622a0e1461014d57600080fd5b366100fe57005b600080fd5b34801561010f57600080fd5b5061012361011e3660046119f0565b6102f8565b005b610123610133366004611a1e565b610524565b34801561014457600080fd5b50610123610762565b34801561015957600080fd5b5061016d610168366004611a1e565b6107e3565b60405161017a9190612307565b60405180910390f35b34801561018f57600080fd5b50610123610828565b3480156101a457600080fd5b506101236101b3366004611a36565b61085e565b3480156101c457600080fd5b50610123610aea565b3480156101d957600080fd5b506101ed6101e8366004611a1e565b610c7d565b60405190815260200161017a565b34801561020757600080fd5b506000546040516001600160a01b03909116815260200161017a565b34801561022f57600080fd5b5061024361023e366004611a1e565b610c8e565b60405161017a919061234a565b34801561025c57600080fd5b506101ed61026b3660046119f0565b6001600160a01b031660009081526002602052604090205490565b610123610e9b565b34801561029a57600080fd5b506102a3611093565b60405161017a91906122a6565b3480156102bc57600080fd5b506101236102cb3660046119f0565b61128b565b3480156102dc57600080fd5b506101ed6102eb366004611a1e565b611326565b610123611430565b33600090815260026020526040808220546001600160a01b03841683529120548291141561036d5760405162461bcd60e51b815260206004820152601b60248201527f506c6179657220616c726561647920696e20746869732067616d65000000000060448201526064015b60405180910390fd5b6001600160a01b0382166000908152600260205260408120546004805490919081106103a957634e487b7160e01b600052603260045260246000fd5b60009182526020822060059091020191506004820154610100900460ff1660028111156103e657634e487b7160e01b600052602160045260246000fd5b1461043f5760405162461bcd60e51b815260206004820152602360248201527f43616e6e6f74206a6f696e20756e74696c206e65787420726f756e6420626567604482015262696e7360e81b6064820152608401610364565b6001600160a01b038316600090815260026020818152604080842054338086528286209190915585546001818101885587875284872090910180546001600160a01b0319168317905593860180549186526003808552838720805460ff94851660ff1990911617905581548087018355918752848720858304018054601f9093166101000a60648102940219909216929092179055850180549384018155845290832090910191909155517f05910ae47ba9e321711f5148424b841604d37e312309d7d7d89d1996f01fbd699061051790839061239b565b60405180910390a1505050565b6000546001600160a01b0316331461054e5760405162461bcd60e51b815260040161036490612315565b60006004828154811061057157634e487b7160e01b600052603260045260246000fd5b9060005260206000209060050201905060005b815481101561075d5760008260030182815481106105b257634e487b7160e01b600052603260045260246000fd5b906000526020600020015490508260030182815481106105e257634e487b7160e01b600052603260045260246000fd5b906000526020600020015483600301838154811061061057634e487b7160e01b600052603260045260246000fd5b906000526020600020016000828254610629919061242d565b92505081905550606483600201838154811061065557634e487b7160e01b600052603260045260246000fd5b90600052602060002090602091828204019190066101000a81548160ff021916908360ff1602179055506000808460000184815481106106a557634e487b7160e01b600052603260045260246000fd5b60009182526020822001546040516001600160a01b039091169185919081818185875af1925050503d80600081146106f9576040519150601f19603f3d011682016040523d82523d6000602084013e6106fe565b606091505b5091509150816107475760405162461bcd60e51b81526020600482015260146024820152732330b4b632b2103a379039b2b7321022ba3432b960611b6044820152606401610364565b505050808061075590612444565b915050610584565b505050565b3360009081526002602052604090205461077b81611654565b7f05910ae47ba9e321711f5148424b841604d37e312309d7d7d89d1996f01fbd69600482815481106107bd57634e487b7160e01b600052603260045260246000fd5b90600052602060002090600502016040516107d891906123d8565b60405180910390a150565b60006004828154811061080657634e487b7160e01b600052603260045260246000fd5b6000918252602090912060059091020160040154610100900460ff1692915050565b6000546001600160a01b031633146108525760405162461bcd60e51b815260040161036490612315565b61085c6000611706565b565b600133600090815260026020526040902054610879906107e3565b600281111561089857634e487b7160e01b600052602160045260246000fd5b146108f75760405162461bcd60e51b815260206004820152602960248201527f5468697320616374696f6e2063616e6e6f7420626520706572666f726d6564206044820152687269676874206e6f7760b81b6064820152608401610364565b3360009081526002602052604081205460048054909190811061092a57634e487b7160e01b600052603260045260246000fd5b6000918252602080832033845260039091526040909220546002600590920290920190810180549193508492909160ff90911690811061097a57634e487b7160e01b600052603260045260246000fd5b90600052602060002090602091828204019190066101000a81548160ff021916908360ff16021790555060006001905060005b600283015460ff82161015610acf576001830154600284018054909160ff169081106109e957634e487b7160e01b600052603260045260246000fd5b90600052602060002090602091828204019190069054906101000a900460ff1660ff16836002018260ff1681548110610a3257634e487b7160e01b600052603260045260246000fd5b60009182526020918290209181049091015460ff601f9092166101000a9004161015610a6a5760018301805460ff191660ff83161790555b6032836002018260ff1681548110610a9257634e487b7160e01b600052603260045260246000fd5b60009182526020918290209181049091015460ff601f9092166101000a90041610610abd5750505050565b80610ac78161245f565b9150506109ad565b50801561075d5750600401805461ff00191661020017905550565b606080606060006040518060c00160405280858152602001600060ff16815260200184815260200183815260200160001515815260200160006002811115610b4257634e487b7160e01b600052602160045260246000fd5b90526004805460018101825560009190915281518051929350839260059092027f8a35acfbc15ff81a39ae7d344fd709f28e8600b4aa8c65c6b64bfe7fe36bd19b0191610b979183916020919091019061185a565b5060208281015160018301805460ff191660ff90921691909117905560408301518051610bca92600285019201906118bf565b5060608201518051610be6916003840191602090910190611960565b50608082015160048201805491151560ff1983168117825560a08501519261ff001990911661ffff1990911617610100836002811115610c3657634e487b7160e01b600052602160045260246000fd5b021790555050600180543360009081526002602090815260408083209390935560039052908120805460ff1916905581549250610c7283612444565b919050555050505050565b6000610c8882611326565b92915050565b610cc36040805160c081018252606080825260006020830181905292820181905280820152608081018290529060a082015290565b60048281548110610ce457634e487b7160e01b600052603260045260246000fd5b90600052602060002090600502016040518060c001604052908160008201805480602002602001604051908101604052809291908181526020018280548015610d5657602002820191906000526020600020905b81546001600160a01b03168152600190910190602001808311610d38575b5050509183525050600182015460ff166020808301919091526002830180546040805182850281018501825282815294019392830182828015610dd657602002820191906000526020600020906000905b825461010083900a900460ff16815260206001928301818104948501949093039092029101808411610da75790505b5050505050815260200160038201805480602002602001604051908101604052809291908181526020018280548015610e2e57602002820191906000526020600020905b815481526020019060010190808311610e1a575b5050509183525050600482015460ff80821615156020840152604090920191610100909104166002811115610e7357634e487b7160e01b600052602160045260246000fd5b6002811115610e9257634e487b7160e01b600052602160045260246000fd5b90525092915050565b600233600090815260026020526040902054610eb6906107e3565b6002811115610ed557634e487b7160e01b600052602160045260246000fd5b14610f175760405162461bcd60e51b815260206004820152601260248201527111d85b59481a185cc81b9bdd08195b99195960721b6044820152606401610364565b33600090815260026020526040812054600480549091908110610f4a57634e487b7160e01b600052603260045260246000fd5b60009182526020808320338452600290915260408320546005909202019250610f7290611326565b9050610f7d82611756565b600182015482546000918291859160ff16908110610fab57634e487b7160e01b600052603260045260246000fd5b60009182526020822001546040516001600160a01b039091169185919081818185875af1925050503d8060008114610fff576040519150601f19603f3d011682016040523d82523d6000602084013e611004565b606091505b5091509150816110565760405162461bcd60e51b815260206004820152601e60248201527f4661696c656420746f2073656e6420457468657220746f2077696e6e657200006044820152606401610364565b7f05910ae47ba9e321711f5148424b841604d37e312309d7d7d89d1996f01fbd6984604051611085919061235d565b60405180910390a150505050565b60606004805480602002602001604051908101604052809291908181526020016000905b8282101561128257838290600052602060002090600502016040518060c00160405290816000820180548060200260200160405190810160405280929190818152602001828054801561113357602002820191906000526020600020905b81546001600160a01b03168152600190910190602001808311611115575b5050509183525050600182015460ff1660208083019190915260028301805460408051828502810185018252828152940193928301828280156111b357602002820191906000526020600020906000905b825461010083900a900460ff168152602060019283018181049485019490930390920291018084116111845790505b505050505081526020016003820180548060200260200160405190810160405280929190818152602001828054801561120b57602002820191906000526020600020905b8154815260200190600101908083116111f7575b5050509183525050600482015460ff8082161515602084015260409092019161010090910416600281111561125057634e487b7160e01b600052602160045260246000fd5b600281111561126f57634e487b7160e01b600052602160045260246000fd5b81525050815260200190600101906110b7565b50505050905090565b6000546001600160a01b031633146112b55760405162461bcd60e51b815260040161036490612315565b6001600160a01b03811661131a5760405162461bcd60e51b815260206004820152602660248201527f4f776e61626c653a206e6577206f776e657220697320746865207a65726f206160448201526564647265737360d01b6064820152608401610364565b61132381611706565b50565b60008060005b6004848154811061134d57634e487b7160e01b600052603260045260246000fd5b60009182526020909120600590910201548110156114295760016004858154811061138857634e487b7160e01b600052603260045260246000fd5b9060005260206000209060050201600301805490506113a7919061242d565b811161141757600484815481106113ce57634e487b7160e01b600052603260045260246000fd5b906000526020600020906005020160030181815481106113fe57634e487b7160e01b600052603260045260246000fd5b9060005260206000200154826114149190612415565b91505b8061142181612444565b91505061132c565b5092915050565b600034116114795760405162461bcd60e51b815260206004820152601660248201527506d7573742062652067726561746572207468616e20360541b6044820152606401610364565b3360009081526002602052604081205490611493826107e3565b60028111156114b257634e487b7160e01b600052602160045260246000fd5b1461150b5760405162461bcd60e51b815260206004820152602360248201527f4265747320617265206e6f74206265696e6720706c61636564207269676874206044820152626e6f7760e81b6064820152608401610364565b336000908152600360205260408120546004805460ff90921692918490811061154457634e487b7160e01b600052603260045260246000fd5b906000526020600020906005020190503481600301838154811061157857634e487b7160e01b600052603260045260246000fd5b9060005260206000200160008282546115919190612415565b90915550506040805133815260208101859052348183015290516001917e1ecf1d0c4d22f324b3ecb9cdf0e5f772bc74ac104e6626f4b3845433d03105919081900360600190a160005b600383015481101561163557600083600301828154811061160c57634e487b7160e01b600052603260045260246000fd5b906000526020600020015411611623575050505050565b8061162d81612444565b9150506115db565b50801561164e5760048201805461ff0019166101001790555b50505050565b60006004828154811061167757634e487b7160e01b600052603260045260246000fd5b60009182526020909120600590910201600481015490915060ff166117025760048101805460ff1916600190811790915560408051602081019091523381526116c29183919061185a565b506040805160208101909152606481526116e290600283019060016118bf565b5060408051602081019091526000815261075d906003830190600161199b565b5050565b600080546001600160a01b038381166001600160a01b0319831681178455604051919092169283917f8be0079c531659141344cd1fd0a4f28419497f9722a3daafe3b4186f6b6457e09190a35050565b61175f81611782565b611768816117f3565b60018101805460ff19169055600401805461ff0019169055565b60005b60028201548110156117025760648260020182815481106117b657634e487b7160e01b600052603260045260246000fd5b90600052602060002090602091828204019190066101000a81548160ff021916908360ff16021790555080806117eb90612444565b915050611785565b60005b81548110156117025760038201546118109060019061242d565b811161184857600082600301828154811061183b57634e487b7160e01b600052603260045260246000fd5b6000918252602090912001555b8061185281612444565b9150506117f6565b8280548282559060005260206000209081019282156118af579160200282015b828111156118af57825182546001600160a01b0319166001600160a01b0390911617825560209092019160019091019061187a565b506118bb9291506119db565b5090565b82805482825590600052602060002090601f016020900481019282156118af5791602002820160005b8382111561192657835183826101000a81548160ff021916908360ff16021790555092602001926001016020816000010492830192600103026118e8565b80156119535782816101000a81549060ff0219169055600101602081600001049283019260010302611926565b50506118bb9291506119db565b8280548282559060005260206000209081019282156118af579160200282015b828111156118af578251825591602001919060010190611980565b8280548282559060005260206000209081019282156118af579160200282015b828111156118af578251829060ff169055916020019190600101906119bb565b5b808211156118bb57600081556001016119dc565b600060208284031215611a01578081fd5b81356001600160a01b0381168114611a17578182fd5b9392505050565b600060208284031215611a2f578081fd5b5035919050565b600060208284031215611a47578081fd5b813560ff81168114611a17578182fd5b6000815180845260208085019450808401835b83811015611a8657815187529582019590820190600101611a6a565b509495945050505050565b6000815480845260208085019450838352808320835b83811015611a8657815487529582019560019182019101611aa7565b6000815180845260208085019450808401835b83811015611a8657815160ff1687529582019590820190600101611ad6565b805480835260008281526020808220940193909190825b82601f82011015611d9357815460ff80821688526020611b35818a01838560081c1660ff169052565b6040611b4a818b01848660101c1660ff169052565b6060611b5f818c01858760181c1660ff169052565b6080611b73818d018688871c1660ff169052565b60a09350611b8a848d01868860281c1660ff169052565b60c0611b9f818e01878960301c1660ff169052565b60e0611bb4818f01888a60381c1660ff169052565b60ff88861c8816166101008f0152611bd76101208f01888a60481c1660ff169052565b611bec6101408f01888a60501c1660ff169052565b611c016101608f01888a60581c1660ff169052565b60ff88851c8816166101808f0152611c246101a08f01888a60681c1660ff169052565b611c396101c08f01888a60701c1660ff169052565b611c4e6101e08f01888a60781c1660ff169052565b60ff88841c8816166102008f0152611c716102208f01888a60881c1660ff169052565b611c866102408f01888a60901c1660ff169052565b611c9b6102608f01888a60981c1660ff169052565b60ff88871c8816166102808f0152611cbe6102a08f01888a60a81c1660ff169052565b611cd36102c08f01888a60b01c1660ff169052565b611ce86102e08f01888a60b81c1660ff169052565b60ff88831c8816166103008f0152611d0b6103208f01888a60c81c1660ff169052565b611d206103408f01888a60d01c1660ff169052565b611d356103608f01888a60d81c1660ff169052565b60ff88821c8816166103808f0152505050505050611d5e6103a08901828460e81c1660ff169052565b611d736103c08901828460f01c1660ff169052565b5060f81c6103e08701526104009095019460019190910190602001611b0c565b90549082811015611dae5760ff821686526020909501946001015b82811015611dca5760ff600883901c1686526020909501946001015b82811015611de65760ff601083901c1686526020909501946001015b82811015611e025760ff601883901c1686526020909501946001015b82811015611e1f57602082901c60ff168652602095909501946001015b82811015611e3b5760ff602883901c1686526020909501946001015b82811015611e575760ff603083901c1686526020909501946001015b82811015611e735760ff603883901c1686526020909501946001015b82811015611e8f5760ff604083901c1686526020909501946001015b82811015611eab5760ff604883901c1686526020909501946001015b82811015611ec75760ff605083901c1686526020909501946001015b82811015611ee35760ff605883901c1686526020909501946001015b82811015611eff5760ff606083901c1686526020909501946001015b82811015611f1b5760ff606883901c1686526020909501946001015b82811015611f375760ff607083901c1686526020909501946001015b82811015611f535760ff607883901c1686526020909501946001015b82811015611f6f5760ff608083901c1686526020909501946001015b82811015611f8b5760ff608883901c1686526020909501946001015b82811015611fa75760ff609083901c1686526020909501946001015b82811015611fc35760ff609883901c1686526020909501946001015b82811015611fdf5760ff60a083901c1686526020909501946001015b82811015611ffb5760ff60a883901c1686526020909501946001015b828110156120175760ff60b083901c1686526020909501946001015b828110156120335760ff60b883901c1686526020909501946001015b8281101561204f5760ff60c083901c1686526020909501946001015b8281101561206b5760ff60c883901c1686526020909501946001015b828110156120875760ff60d083901c1686526020909501946001015b828110156120a35760ff60d883901c1686526020909501946001015b828110156120bf5760ff60e083901c1686526020909501946001015b828110156120db5760ff60e883901c1686526020909501946001015b828110156120f75760ff60f083901c1686526020909501946001015b8281101561210d5760f882901c86526020860195505b5093949350505050565b6003811061213557634e487b7160e01b600052602160045260246000fd5b9052565b805160c080845281519084018190526000916020919082019060e0860190845b818110156121805783516001600160a01b0316835260208301938501939250600101612159565b50508483015160ff81168785015291506040850151925085810360408701526121a98184611ac3565b92505050606083015184820360608601526121c48282611a57565b91505060808301516121da608086018215159052565b5060a08301516121ed60a0860182612117565b509392505050565b60c08083528154908301819052600082815260208120909160e0850190835b8181101561223b5783546001600160a01b0316835260019384019360209093019201612214565b5050600184015460ff1660208601819052858203604087015291506122638160028601611af5565b915050838103606085015261227b8160038501611a91565b905060048301546122936080860160ff831615159052565b6121ed60a0860160ff8360081c16612117565b6000602080830181845280855180835260408601915060408160051b8701019250838701855b828110156122fa57603f198886030184526122e8858351612139565b945092850192908501906001016122cc565b5092979650505050505050565b60208101610c888284612117565b6020808252818101527f4f776e61626c653a2063616c6c6572206973206e6f7420746865206f776e6572604082015260600190565b602081526000611a176020830184612139565b60408152600061237060408301846121f5565b8281036020840152600981526833b0b6b29037bb32b960b91b60208201526040810191505092915050565b6040815260006123ae60408301846121f5565b828103602084015260088152676a6f696e47616d6560c01b60208201526040810191505092915050565b6040815260006123eb60408301846121f5565b828103602084015260088152676e65772067616d6560c01b60208201526040810191505092915050565b600082198211156124285761242861247f565b500190565b60008282101561243f5761243f61247f565b500390565b60006000198214156124585761245861247f565b5060010190565b600060ff821660ff8114156124765761247661247f565b60010192915050565b634e487b7160e01b600052601160045260246000fdfea2646970667358221220c6ad91a378bbb2d9df7366ba350cb702fb999854991f13b8b661eaec01ebc3a564736f6c63430008040033",
  "devdoc": {
    "kind": "dev",
    "methods": {
      "emergencyWithdraw(uint256)": {
        "params": {
          "_gameId": "The index of the game in the games array for lookup"
        }
      },
      "getAllGames()": {
        "returns": {
          "_0": "All games in storage"
        }
      },
      "getGame(uint256)": {
        "params": {
          "_gameId": "The ID number/Index number of the game"
        },
        "returns": {
          "_0": "The details of the game"
        }
      },
      "getGameId(address)": {
        "returns": {
          "_0": "The index of the game in the games array"
        }
      },
      "getStatus(uint256)": {
        "params": {
          "_gameId": "The index of the game in the games array for lookup"
        }
      },
      "joinGame(address)": {
        "params": {
          "_address": "is the public key of the game creator"
        }
      },
      "newGame()": {
        "details": "Must be initialized resulting in two transactions for new games"
      },
      "owner()": {
        "details": "Returns the address of the current owner."
      },
      "renounceOwnership()": {
        "details": "Leaves the contract without owner. It will not be possible to call `onlyOwner` functions anymore. Can only be called by the current owner. NOTE: Renouncing ownership will leave the contract without an owner, thereby removing any functionality that is only available to the owner."
      },
      "transferOwnership(address)": {
        "details": "Transfers ownership of the contract to a new account (`newOwner`). Can only be called by the current owner."
      }
    },
    "version": 1
  },
  "userdoc": {
    "kind": "user",
    "methods": {
      "emergencyWithdraw(uint256)": {
        "notice": "Returns all bets to respective users"
      },
      "getAllGames()": {
        "notice": "Retrieve all games ever created"
      },
      "getGame(uint256)": {
        "notice": "Retrieve a single game object"
      },
      "getGameId(address)": {
        "notice": "Uses address of the creator of the game to retrieve the game index"
      },
      "getStatus(uint256)": {
        "notice": "Returns the progress of the game"
      },
      "joinGame(address)": {
        "notice": "Join a game already in progress"
      },
      "newGame()": {
        "notice": "Adds a new empty game to storage"
      },
      "setGame()": {
        "notice": "Set the name and initial parameters of new games"
      }
    },
    "version": 1
  },
  "storageLayout": {
    "storage": [
      {
        "astId": 7,
        "contract": "contracts/DiceGame.sol:DiceGame",
        "label": "_owner",
        "offset": 0,
        "slot": "0",
        "type": "t_address"
      },
      {
        "astId": 578,
        "contract": "contracts/DiceGame.sol:DiceGame",
        "label": "gameCounter",
        "offset": 0,
        "slot": "1",
        "type": "t_uint256"
      },
      {
        "astId": 603,
        "contract": "contracts/DiceGame.sol:DiceGame",
        "label": "userToGameId",
        "offset": 0,
        "slot": "2",
        "type": "t_mapping(t_address,t_uint256)"
      },
      {
        "astId": 607,
        "contract": "contracts/DiceGame.sol:DiceGame",
        "label": "userToIndex",
        "offset": 0,
        "slot": "3",
        "type": "t_mapping(t_address,t_uint8)"
      },
      {
        "astId": 629,
        "contract": "contracts/DiceGame.sol:DiceGame",
        "label": "games",
        "offset": 0,
        "slot": "4",
        "type": "t_array(t_struct(Game)599_storage)dyn_storage"
      }
    ],
    "types": {
      "t_address": {
        "encoding": "inplace",
        "label": "address",
        "numberOfBytes": "20"
      },
      "t_array(t_address)dyn_storage": {
        "base": "t_address",
        "encoding": "dynamic_array",
        "label": "address[]",
        "numberOfBytes": "32"
      },
      "t_array(t_struct(Game)599_storage)dyn_storage": {
        "base": "t_struct(Game)599_storage",
        "encoding": "dynamic_array",
        "label": "struct DiceGameFactory.Game[]",
        "numberOfBytes": "32"
      },
      "t_array(t_uint256)dyn_storage": {
        "base": "t_uint256",
        "encoding": "dynamic_array",
        "label": "uint256[]",
        "numberOfBytes": "32"
      },
      "t_array(t_uint8)dyn_storage": {
        "base": "t_uint8",
        "encoding": "dynamic_array",
        "label": "uint8[]",
        "numberOfBytes": "32"
      },
      "t_bool": {
        "encoding": "inplace",
        "label": "bool",
        "numberOfBytes": "1"
      },
      "t_enum(Status)582": {
        "encoding": "inplace",
        "label": "enum DiceGameFactory.Status",
        "numberOfBytes": "1"
      },
      "t_mapping(t_address,t_uint256)": {
        "encoding": "mapping",
        "key": "t_address",
        "label": "mapping(address => uint256)",
        "numberOfBytes": "32",
        "value": "t_uint256"
      },
      "t_mapping(t_address,t_uint8)": {
        "encoding": "mapping",
        "key": "t_address",
        "label": "mapping(address => uint8)",
        "numberOfBytes": "32",
        "value": "t_uint8"
      },
      "t_struct(Game)599_storage": {
        "encoding": "inplace",
        "label": "struct DiceGameFactory.Game",
        "members": [
          {
            "astId": 585,
            "contract": "contracts/DiceGame.sol:DiceGame",
            "label": "players",
            "offset": 0,
            "slot": "0",
            "type": "t_array(t_address)dyn_storage"
          },
          {
            "astId": 587,
            "contract": "contracts/DiceGame.sol:DiceGame",
            "label": "winnerIndex",
            "offset": 0,
            "slot": "1",
            "type": "t_uint8"
          },
          {
            "astId": 590,
            "contract": "contracts/DiceGame.sol:DiceGame",
            "label": "scores",
            "offset": 0,
            "slot": "2",
            "type": "t_array(t_uint8)dyn_storage"
          },
          {
            "astId": 593,
            "contract": "contracts/DiceGame.sol:DiceGame",
            "label": "bets",
            "offset": 0,
            "slot": "3",
            "type": "t_array(t_uint256)dyn_storage"
          },
          {
            "astId": 595,
            "contract": "contracts/DiceGame.sol:DiceGame",
            "label": "initialized",
            "offset": 0,
            "slot": "4",
            "type": "t_bool"
          },
          {
            "astId": 598,
            "contract": "contracts/DiceGame.sol:DiceGame",
            "label": "currentStatus",
            "offset": 1,
            "slot": "4",
            "type": "t_enum(Status)582"
          }
        ],
        "numberOfBytes": "160"
      },
      "t_uint256": {
        "encoding": "inplace",
        "label": "uint256",
        "numberOfBytes": "32"
      },
      "t_uint8": {
        "encoding": "inplace",
        "label": "uint8",
        "numberOfBytes": "1"
      }
    }
  }
}