{
  "address": "0x346A8C192b68963210658A70Becc4AEB88c0258d",
  "abi": [
    {
      "anonymous": false,
      "inputs": [
        {
          "components": [
            {
              "internalType": "address[]",
              "name": "players",
              "type": "address[]"
            },
            {
              "internalType": "uint8[]",
              "name": "scores",
              "type": "uint8[]"
            },
            {
              "internalType": "uint256[]",
              "name": "bet",
              "type": "uint256[]"
            },
            {
              "internalType": "string",
              "name": "roomName",
              "type": "string"
            },
            {
              "internalType": "bool",
              "name": "initialized",
              "type": "bool"
            }
          ],
          "indexed": false,
          "internalType": "struct DiceGameFactory.Game",
          "name": "game",
          "type": "tuple"
        },
        {
          "indexed": false,
          "internalType": "string",
          "name": "message",
          "type": "string"
        }
      ],
      "name": "GameSet",
      "type": "event"
    },
    {
      "anonymous": false,
      "inputs": [
        {
          "indexed": true,
          "internalType": "address",
          "name": "previousOwner",
          "type": "address"
        },
        {
          "indexed": true,
          "internalType": "address",
          "name": "newOwner",
          "type": "address"
        }
      ],
      "name": "OwnershipTransferred",
      "type": "event"
    },
    {
      "inputs": [
        {
          "internalType": "uint256",
          "name": "_gameId",
          "type": "uint256"
        }
      ],
      "name": "checkBet",
      "outputs": [
        {
          "internalType": "uint256",
          "name": "",
          "type": "uint256"
        }
      ],
      "stateMutability": "view",
      "type": "function"
    },
    {
      "inputs": [
        {
          "internalType": "uint256",
          "name": "_gameId",
          "type": "uint256"
        }
      ],
      "name": "emergencyWithdraw",
      "outputs": [],
      "stateMutability": "nonpayable",
      "type": "function"
    },
    {
      "inputs": [
        {
          "internalType": "uint256",
          "name": "_gameId",
          "type": "uint256"
        }
      ],
      "name": "gameOver",
      "outputs": [
        {
          "internalType": "bool",
          "name": "",
          "type": "bool"
        }
      ],
      "stateMutability": "view",
      "type": "function"
    },
    {
      "inputs": [],
      "name": "getAllGames",
      "outputs": [
        {
          "components": [
            {
              "internalType": "address[]",
              "name": "players",
              "type": "address[]"
            },
            {
              "internalType": "uint8[]",
              "name": "scores",
              "type": "uint8[]"
            },
            {
              "internalType": "uint256[]",
              "name": "bet",
              "type": "uint256[]"
            },
            {
              "internalType": "string",
              "name": "roomName",
              "type": "string"
            },
            {
              "internalType": "bool",
              "name": "initialized",
              "type": "bool"
            }
          ],
          "internalType": "struct DiceGameFactory.Game[]",
          "name": "",
          "type": "tuple[]"
        }
      ],
      "stateMutability": "view",
      "type": "function"
    },
    {
      "inputs": [
        {
          "internalType": "uint256",
          "name": "_gameId",
          "type": "uint256"
        }
      ],
      "name": "getGame",
      "outputs": [
        {
          "components": [
            {
              "internalType": "address[]",
              "name": "players",
              "type": "address[]"
            },
            {
              "internalType": "uint8[]",
              "name": "scores",
              "type": "uint8[]"
            },
            {
              "internalType": "uint256[]",
              "name": "bet",
              "type": "uint256[]"
            },
            {
              "internalType": "string",
              "name": "roomName",
              "type": "string"
            },
            {
              "internalType": "bool",
              "name": "initialized",
              "type": "bool"
            }
          ],
          "internalType": "struct DiceGameFactory.Game",
          "name": "",
          "type": "tuple"
        }
      ],
      "stateMutability": "view",
      "type": "function"
    },
    {
      "inputs": [
        {
          "internalType": "string",
          "name": "_roomName",
          "type": "string"
        }
      ],
      "name": "getGameByName",
      "outputs": [
        {
          "components": [
            {
              "internalType": "address[]",
              "name": "players",
              "type": "address[]"
            },
            {
              "internalType": "uint8[]",
              "name": "scores",
              "type": "uint8[]"
            },
            {
              "internalType": "uint256[]",
              "name": "bet",
              "type": "uint256[]"
            },
            {
              "internalType": "string",
              "name": "roomName",
              "type": "string"
            },
            {
              "internalType": "bool",
              "name": "initialized",
              "type": "bool"
            }
          ],
          "internalType": "struct DiceGameFactory.Game",
          "name": "",
          "type": "tuple"
        }
      ],
      "stateMutability": "view",
      "type": "function"
    },
    {
      "inputs": [
        {
          "internalType": "string",
          "name": "_roomName",
          "type": "string"
        }
      ],
      "name": "getGameId",
      "outputs": [
        {
          "internalType": "uint256",
          "name": "",
          "type": "uint256"
        }
      ],
      "stateMutability": "view",
      "type": "function"
    },
    {
      "inputs": [
        {
          "internalType": "uint256",
          "name": "_gameId",
          "type": "uint256"
        }
      ],
      "name": "getTotalBet",
      "outputs": [
        {
          "internalType": "uint256",
          "name": "",
          "type": "uint256"
        }
      ],
      "stateMutability": "view",
      "type": "function"
    },
    {
      "inputs": [
        {
          "internalType": "uint256",
          "name": "_gameId",
          "type": "uint256"
        }
      ],
      "name": "joinGame",
      "outputs": [],
      "stateMutability": "nonpayable",
      "type": "function"
    },
    {
      "inputs": [],
      "name": "newGame",
      "outputs": [],
      "stateMutability": "nonpayable",
      "type": "function"
    },
    {
      "inputs": [],
      "name": "owner",
      "outputs": [
        {
          "internalType": "address",
          "name": "",
          "type": "address"
        }
      ],
      "stateMutability": "view",
      "type": "function"
    },
    {
      "inputs": [
        {
          "internalType": "uint256",
          "name": "_gameId",
          "type": "uint256"
        }
      ],
      "name": "payWinner",
      "outputs": [],
      "stateMutability": "nonpayable",
      "type": "function"
    },
    {
      "inputs": [],
      "name": "placeBet",
      "outputs": [],
      "stateMutability": "payable",
      "type": "function"
    },
    {
      "inputs": [],
      "name": "renounceOwnership",
      "outputs": [],
      "stateMutability": "nonpayable",
      "type": "function"
    },
    {
      "inputs": [
        {
          "internalType": "string",
          "name": "_roomName",
          "type": "string"
        }
      ],
      "name": "setGame",
      "outputs": [],
      "stateMutability": "nonpayable",
      "type": "function"
    },
    {
      "inputs": [
        {
          "internalType": "uint256",
          "name": "_gameId",
          "type": "uint256"
        },
        {
          "internalType": "uint8",
          "name": "_score",
          "type": "uint8"
        }
      ],
      "name": "setScore",
      "outputs": [],
      "stateMutability": "nonpayable",
      "type": "function"
    },
    {
      "inputs": [
        {
          "internalType": "address",
          "name": "newOwner",
          "type": "address"
        }
      ],
      "name": "transferOwnership",
      "outputs": [],
      "stateMutability": "nonpayable",
      "type": "function"
    },
    {
      "stateMutability": "payable",
      "type": "receive"
    }
  ],
  "transactionHash": "0x6870ea05d818e556744b6f9c583cfb5d4cc0be593f53303f6cd598ed7a9b7e2a",
  "args": [],
  "solcInputHash": "c734e23ef69821a827e0fe314974a201",
  "bytecode": "0x6080604052600060015534801561001557600080fd5b5061001f33610024565b610074565b600080546001600160a01b038381166001600160a01b0319831681178455604051919092169283917f8be0079c531659141344cd1fd0a4f28419497f9722a3daafe3b4186f6b6457e09190a35050565b6125e6806100836000396000f3fe6080604052600436106101025760003560e01c8063a2f77bcc11610095578063efaa55a011610064578063efaa55a0146102b4578063f2fde38b146102d4578063f324796f146102f4578063f4cb5bde14610314578063f90f45601461033457600080fd5b8063a2f77bcc14610225578063a5c0449f14610252578063a6c1299714610272578063db1c45f91461029257600080fd5b80637d03f5f3116100d15780637d03f5f31461019857806385f9ce72146101ad57806387f7777d146101dd5780638da5cb5b146101fd57600080fd5b806327cafc171461010e57806347ee985f146101415780635312ea8e14610163578063715018a61461018357600080fd5b3661010957005b600080fd5b34801561011a57600080fd5b5061012e61012936600461197a565b61033c565b6040519081526020015b60405180910390f35b34801561014d57600080fd5b5061016161015c36600461197a565b610364565b005b34801561016f57600080fd5b5061016161017e366004611a24565b61040a565b34801561018f57600080fd5b50610161610575565b3480156101a457600080fd5b506101616105ab565b3480156101b957600080fd5b506101cd6101c8366004611a24565b6106d4565b6040519015158152602001610138565b3480156101e957600080fd5b5061012e6101f8366004611a24565b6107c4565b34801561020957600080fd5b506000546040516001600160a01b039091168152602001610138565b34801561023157600080fd5b50610245610240366004611a24565b6107d5565b6040516101389190612408565b34801561025e57600080fd5b5061016161026d366004611a24565b610a1c565b34801561027e57600080fd5b5061024561028d36600461197a565b610d48565b34801561029e57600080fd5b506102a7610dbb565b6040516101389190612372565b3480156102c057600080fd5b506101616102cf366004611a24565b610fee565b3480156102e057600080fd5b506101616102ef36600461194c565b611169565b34801561030057600080fd5b5061016161030f366004611a3c565b611204565b34801561032057600080fd5b5061012e61032f366004611a24565b61132e565b610161611438565b600060038260405161034e9190612356565b9081526020016040518091039020549050919050565b3360009081526002602052604090205461037e818361154f565b8060038360405161038f9190612356565b9081526020016040518091039020819055507f0262a11f8af94fe7f81d498c9057d058a71dd0d3db4dfae8dcfe9275d2452100600582815481106103e357634e487b7160e01b600052603260045260246000fd5b90600052602060002090600502016040516103fe9190612496565b60405180910390a15050565b6000546001600160a01b0316331461043d5760405162461bcd60e51b8152600401610434906123d3565b60405180910390fd5b60006005828154811061046057634e487b7160e01b600052603260045260246000fd5b9060005260206000209060050201905060005b8154811015610570576104ee8260000182815481106104a257634e487b7160e01b600052603260045260246000fd5b6000918252602090912001546002840180546001600160a01b0390921691849081106104de57634e487b7160e01b600052603260045260246000fd5b9060005260206000200154611619565b81600201818154811061051157634e487b7160e01b600052603260045260246000fd5b906000526020600020015482600201828154811061053f57634e487b7160e01b600052603260045260246000fd5b90600052602060002001600082825461055891906124eb565b9091555081905061056881612569565b915050610473565b505050565b6000546001600160a01b0316331461059f5760405162461bcd60e51b8152600401610434906123d3565b6105a9600061164f565b565b6040805160a0810182526060808252602080830182905292820181905281810181905260006080830181905260058054600181018255918190528351805193958695869586959194859492027f036b6384b5eca791c62761152d0c79bb0604c104a5fb6f4eb0703f3154bb3db00192610628928492910190611743565b50602082810151805161064192600185019201906117a8565b506040820151805161065d916002840191602090910190611849565b5060608201518051610679916003840191602090910190611884565b50608091909101516004918201805491151560ff19928316179055600180543360009081526002602090815260408083209390935594909452832080549092169091558054916106c883612569565b91905055505050505050565b600080600583815481106106f857634e487b7160e01b600052603260045260246000fd5b9060005260206000209060050201905060005b60028201548110156107ba57600082600201828154811061073c57634e487b7160e01b600052603260045260246000fd5b90600052602060002001541115806107995750606460ff1682600101828154811061077757634e487b7160e01b600052603260045260246000fd5b60009182526020918290209181049091015460ff601f9092166101000a900416145b156107a8575060009392505050565b806107b281612569565b91505061070b565b5060019392505050565b60006107cf8261132e565b92915050565b6108096040518060a00160405280606081526020016060815260200160608152602001606081526020016000151581525090565b6005828154811061082a57634e487b7160e01b600052603260045260246000fd5b90600052602060002090600502016040518060a00160405290816000820180548060200260200160405190810160405280929190818152602001828054801561089c57602002820191906000526020600020905b81546001600160a01b0316815260019091019060200180831161087e575b505050505081526020016001820180548060200260200160405190810160405280929190818152602001828054801561091257602002820191906000526020600020906000905b825461010083900a900460ff168152602060019283018181049485019490930390920291018084116108e35790505b505050505081526020016002820180548060200260200160405190810160405280929190818152602001828054801561096a57602002820191906000526020600020905b815481526020019060010190808311610956575b505050505081526020016003820180546109839061252e565b80601f01602080910402602001604051908101604052809291908181526020018280546109af9061252e565b80156109fc5780601f106109d1576101008083540402835291602001916109fc565b820191906000526020600020905b8154815290600101906020018083116109df57829003601f168201915b50505091835250506004919091015460ff16151560209091015292915050565b610a25816106d4565b610a665760405162461bcd60e51b815260206004820152601260248201527111d85b59481a185cc81b9bdd08195b99195960721b6044820152606401610434565b60008060058381548110610a8a57634e487b7160e01b600052603260045260246000fd5b9060005260206000209060050201905060006103e89050600082600101805480602002602001604051908101604052809291908181526020018280548015610b0f57602002820191906000526020600020906000905b825461010083900a900460ff16815260206001928301818104948501949093039092029101808411610ae05790505b5050505050905060005b8151811015610b975782828281518110610b4357634e487b7160e01b600052603260045260246000fd5b602002602001015160ff161015610b8557809450818181518110610b7757634e487b7160e01b600052603260045260246000fd5b602002602001015160ff1692505b80610b8f81612569565b915050610b19565b506000610ba38661132e565b905060005b60058781548110610bc957634e487b7160e01b600052603260045260246000fd5b6000918252602090912060059091020154811015610c9b57600160058881548110610c0457634e487b7160e01b600052603260045260246000fd5b906000526020600020906005020160020180549050610c2391906124eb565b8111610c8957600060058881548110610c4c57634e487b7160e01b600052603260045260246000fd5b90600052602060002090600502016002018281548110610c7c57634e487b7160e01b600052603260045260246000fd5b6000918252602090912001555b80610c9381612569565b915050610ba8565b50610ca58661169f565b7f0262a11f8af94fe7f81d498c9057d058a71dd0d3db4dfae8dcfe9275d245210084604051610cd4919061241b565b60405180910390a1836000018581548110610cff57634e487b7160e01b600052603260045260246000fd5b60009182526020822001546040516001600160a01b039091169183156108fc02918491818181858888f19350505050158015610d3f573d6000803e3d6000fd5b50505050505050565b610d7c6040518060a00160405280606081526020016060815260200160608152602001606081526020016000151581525090565b6005600383604051610d8e9190612356565b9081526020016040518091039020548154811061082a57634e487b7160e01b600052603260045260246000fd5b60606005805480602002602001604051908101604052809291908181526020016000905b82821015610fe557838290600052602060002090600502016040518060a001604052908160008201805480602002602001604051908101604052809291908181526020018280548015610e5b57602002820191906000526020600020905b81546001600160a01b03168152600190910190602001808311610e3d575b5050505050815260200160018201805480602002602001604051908101604052809291908181526020018280548015610ed157602002820191906000526020600020906000905b825461010083900a900460ff16815260206001928301818104948501949093039092029101808411610ea25790505b5050505050815260200160028201805480602002602001604051908101604052809291908181526020018280548015610f2957602002820191906000526020600020905b815481526020019060010190808311610f15575b50505050508152602001600382018054610f429061252e565b80601f0160208091040260200160405190810160405280929190818152602001828054610f6e9061252e565b8015610fbb5780601f10610f9057610100808354040283529160200191610fbb565b820191906000526020600020905b815481529060010190602001808311610f9e57829003601f168201915b50505091835250506004919091015460ff1615156020918201529082526001929092019101610ddf565b50505050905090565b33600090815260026020526040902054819081141561104f5760405162461bcd60e51b815260206004820152601b60248201527f506c6179657220616c726561647920696e20746869732067616d6500000000006044820152606401610434565b60006005838154811061107257634e487b7160e01b600052603260045260246000fd5b600091825260208083203380855260028352604085208890556005909302018054600181810183558286529290942090930180546001600160a01b031916909217909155808201549192506110c6916124eb565b336000908152600460209081526040808320805460ff95861660ff19909116179055600185810180548083018255908552838520848204018054601f9092166101000a60648102970219909116959095179094556002850180549485018155835290822090920155517f0262a11f8af94fe7f81d498c9057d058a71dd0d3db4dfae8dcfe9275d24521009061115c908390612459565b60405180910390a1505050565b6000546001600160a01b031633146111935760405162461bcd60e51b8152600401610434906123d3565b6001600160a01b0381166111f85760405162461bcd60e51b815260206004820152602660248201527f4f776e61626c653a206e6577206f776e657220697320746865207a65726f206160448201526564647265737360d01b6064820152608401610434565b6112018161164f565b50565b60006005838154811061122757634e487b7160e01b600052603260045260246000fd5b6000918252602080832033845260049091526040832054600592909202016002810180549194509160ff1690811061126f57634e487b7160e01b600052603260045260246000fd5b9060005260206000200154116112c75760405162461bcd60e51b815260206004820152601b60248201527f42657420686173206e6f74206265656e20706c616365642079657400000000006044820152606401610434565b33600090815260046020526040902054600182018054849260ff169081106112ff57634e487b7160e01b600052603260045260246000fd5b90600052602060002090602091828204019190066101000a81548160ff021916908360ff160217905550505050565b60008060005b6005848154811061135557634e487b7160e01b600052603260045260246000fd5b60009182526020909120600590910201548110156114315760016005858154811061139057634e487b7160e01b600052603260045260246000fd5b9060005260206000209060050201600201805490506113af91906124eb565b811161141f57600584815481106113d657634e487b7160e01b600052603260045260246000fd5b9060005260206000209060050201600201818154811061140657634e487b7160e01b600052603260045260246000fd5b90600052602060002001548261141c91906124d3565b91505b8061142981612569565b915050611334565b5092915050565b33600090815260026020526040812054600580549192918291908490811061147057634e487b7160e01b600052603260045260246000fd5b9060005260206000209060050201905060005b81548110156114e157815433908390839081106114b057634e487b7160e01b600052603260045260246000fd5b6000918252602090912001546001600160a01b031614156114cf578092505b806114d981612569565b915050611483565b50600281015461150857600201805460018101825560009182526020909120349101555050565b3481600201838154811061152c57634e487b7160e01b600052603260045260246000fd5b90600052602060002001600082825461154591906124d3565b9091555050505050565b60006005838154811061157257634e487b7160e01b600052603260045260246000fd5b60009182526020909120600590910201600481015490915060ff166105705760048101805460ff1916600190811790915560408051602081019091523381526115bd91839190611743565b506040805160208101909152606481526115dd90600180840191906117a8565b506040805160208101909152600081526115fd90600283019060016118f7565b5081516116139060038301906020850190611884565b50505050565b6040516001600160a01b0383169082156108fc029083906000818181858888f19350505050158015610570573d6000803e3d6000fd5b600080546001600160a01b038381166001600160a01b0319831681178455604051919092169283917f8be0079c531659141344cd1fd0a4f28419497f9722a3daafe3b4186f6b6457e09190a35050565b6000600582815481106116c257634e487b7160e01b600052603260045260246000fd5b9060005260206000209060050201905060005b600182015481101561057057606482600101828154811061170657634e487b7160e01b600052603260045260246000fd5b90600052602060002090602091828204019190066101000a81548160ff021916908360ff160217905550808061173b90612569565b9150506116d5565b828054828255906000526020600020908101928215611798579160200282015b8281111561179857825182546001600160a01b0319166001600160a01b03909116178255602090920191600190910190611763565b506117a4929150611937565b5090565b82805482825590600052602060002090601f016020900481019282156117985791602002820160005b8382111561180f57835183826101000a81548160ff021916908360ff16021790555092602001926001016020816000010492830192600103026117d1565b801561183c5782816101000a81549060ff021916905560010160208160000104928301926001030261180f565b50506117a4929150611937565b828054828255906000526020600020908101928215611798579160200282015b82811115611798578251825591602001919060010190611869565b8280546118909061252e565b90600052602060002090601f0160209004810192826118b25760008555611798565b82601f106118cb57805160ff1916838001178555611798565b828001600101855582156117985791820182811115611798578251825591602001919060010190611869565b828054828255906000526020600020908101928215611798579160200282015b82811115611798578251829060ff16905591602001919060010190611917565b5b808211156117a45760008155600101611938565b60006020828403121561195d578081fd5b81356001600160a01b0381168114611973578182fd5b9392505050565b60006020828403121561198b578081fd5b813567ffffffffffffffff808211156119a2578283fd5b818401915084601f8301126119b5578283fd5b8135818111156119c7576119c761259a565b604051601f8201601f19908116603f011681019083821181831017156119ef576119ef61259a565b81604052828152876020848701011115611a07578586fd5b826020860160208301379182016020019490945295945050505050565b600060208284031215611a35578081fd5b5035919050565b60008060408385031215611a4e578081fd5b82359150602083013560ff81168114611a65578182fd5b809150509250929050565b6000815180845260208085019450808401835b83811015611a9f57815187529582019590820190600101611a83565b509495945050505050565b6000815480845260208085019450838352808320835b83811015611a9f57815487529582019560019182019101611ac0565b6000815180845260208085019450808401835b83811015611a9f57815160ff1687529582019590820190600101611aef565b805480835260008281526020808220940193909190825b82601f82011015611dac57815460ff80821688526020611b4e818a01838560081c1660ff169052565b6040611b63818b01848660101c1660ff169052565b6060611b78818c01858760181c1660ff169052565b6080611b8c818d018688871c1660ff169052565b60a09350611ba3848d01868860281c1660ff169052565b60c0611bb8818e01878960301c1660ff169052565b60e0611bcd818f01888a60381c1660ff169052565b60ff88861c8816166101008f0152611bf06101208f01888a60481c1660ff169052565b611c056101408f01888a60501c1660ff169052565b611c1a6101608f01888a60581c1660ff169052565b60ff88851c8816166101808f0152611c3d6101a08f01888a60681c1660ff169052565b611c526101c08f01888a60701c1660ff169052565b611c676101e08f01888a60781c1660ff169052565b60ff88841c8816166102008f0152611c8a6102208f01888a60881c1660ff169052565b611c9f6102408f01888a60901c1660ff169052565b611cb46102608f01888a60981c1660ff169052565b60ff88871c8816166102808f0152611cd76102a08f01888a60a81c1660ff169052565b611cec6102c08f01888a60b01c1660ff169052565b611d016102e08f01888a60b81c1660ff169052565b60ff88831c8816166103008f0152611d246103208f01888a60c81c1660ff169052565b611d396103408f01888a60d01c1660ff169052565b611d4e6103608f01888a60d81c1660ff169052565b60ff88821c8816166103808f0152505050505050611d776103a08901828460e81c1660ff169052565b611d8c6103c08901828460f01c1660ff169052565b5060f81c6103e08701526104009095019460019190910190602001611b25565b90549082811015611dc75760ff821686526020909501946001015b82811015611de35760ff600883901c1686526020909501946001015b82811015611dff5760ff601083901c1686526020909501946001015b82811015611e1b5760ff601883901c1686526020909501946001015b82811015611e3857602082901c60ff168652602095909501946001015b82811015611e545760ff602883901c1686526020909501946001015b82811015611e705760ff603083901c1686526020909501946001015b82811015611e8c5760ff603883901c1686526020909501946001015b82811015611ea85760ff604083901c1686526020909501946001015b82811015611ec45760ff604883901c1686526020909501946001015b82811015611ee05760ff605083901c1686526020909501946001015b82811015611efc5760ff605883901c1686526020909501946001015b82811015611f185760ff606083901c1686526020909501946001015b82811015611f345760ff606883901c1686526020909501946001015b82811015611f505760ff607083901c1686526020909501946001015b82811015611f6c5760ff607883901c1686526020909501946001015b82811015611f885760ff608083901c1686526020909501946001015b82811015611fa45760ff608883901c1686526020909501946001015b82811015611fc05760ff609083901c1686526020909501946001015b82811015611fdc5760ff609883901c1686526020909501946001015b82811015611ff85760ff60a083901c1686526020909501946001015b828110156120145760ff60a883901c1686526020909501946001015b828110156120305760ff60b083901c1686526020909501946001015b8281101561204c5760ff60b883901c1686526020909501946001015b828110156120685760ff60c083901c1686526020909501946001015b828110156120845760ff60c883901c1686526020909501946001015b828110156120a05760ff60d083901c1686526020909501946001015b828110156120bc5760ff60d883901c1686526020909501946001015b828110156120d85760ff60e083901c1686526020909501946001015b828110156120f45760ff60e883901c1686526020909501946001015b828110156121105760ff60f083901c1686526020909501946001015b828110156121265760f882901c86526020860195505b5093949350505050565b60008151808452612148816020860160208601612502565b601f01601f19169290920160200192915050565b8054600090600181811c908083168061217657607f831692505b602080841082141561219657634e487b7160e01b86526022600452602486fd5b838852602088018280156121b157600181146121c2576121ed565b60ff198716825282820197506121ed565b60008981526020902060005b878110156121e7578154848201529086019084016121ce565b83019850505b5050505050505092915050565b805160a080845281519084018190526000916020919082019060c0860190845b818110156122415783516001600160a01b031683526020830193850193925060010161221a565b50508285015191508581038387015261225a8183611adc565b92505050604083015184820360408601526122758282611a70565b9150506060830151848203606086015261228f8282612130565b91505060808301516122a5608086018215159052565b509392505050565b60a08083528154908301819052600082815260208120909160c0850190835b818110156122f35783546001600160a01b03168352600193840193602090930192016122cc565b5050848103602086015261230a8160018601611b0e565b91505083810360408501526123228160028501611aaa565b90508381036060850152612339816003850161215c565b9050612349600484015460ff1690565b80151560808601526122a5565b60008251612368818460208701612502565b9190910192915050565b6000602080830181845280855180835260408601915060408160051b8701019250838701855b828110156123c657603f198886030184526123b48583516121fa565b94509285019290850190600101612398565b5092979650505050505050565b6020808252818101527f4f776e61626c653a2063616c6c6572206973206e6f7420746865206f776e6572604082015260600190565b60208152600061197360208301846121fa565b60408152600061242e60408301846122ad565b8281036020840152600981526833b0b6b29037bb32b960b91b60208201526040810191505092915050565b60408152600061246c60408301846122ad565b828103602084015260088152676a6f696e47616d6560c01b60208201526040810191505092915050565b6040815260006124a960408301846122ad565b828103602084015260088152676e65772067616d6560c01b60208201526040810191505092915050565b600082198211156124e6576124e6612584565b500190565b6000828210156124fd576124fd612584565b500390565b60005b8381101561251d578181015183820152602001612505565b838111156116135750506000910152565b600181811c9082168061254257607f821691505b6020821081141561256357634e487b7160e01b600052602260045260246000fd5b50919050565b600060001982141561257d5761257d612584565b5060010190565b634e487b7160e01b600052601160045260246000fd5b634e487b7160e01b600052604160045260246000fdfea2646970667358221220507ace80f54c697bc6ec606a6c5f97e2e15a95b309b66d3c98b44b0c3850266164736f6c63430008040033",
  "devdoc": {
    "kind": "dev",
    "methods": {
      "getAllGames()": {
        "returns": {
          "_0": "All games in storage"
        }
      },
      "getGame(uint256)": {
        "params": {
          "_gameId": "The ID number/Index number of the game"
        },
        "returns": {
          "_0": "The details of the game"
        }
      },
      "owner()": {
        "details": "Returns the address of the current owner."
      },
      "renounceOwnership()": {
        "details": "Leaves the contract without owner. It will not be possible to call `onlyOwner` functions anymore. Can only be called by the current owner. NOTE: Renouncing ownership will leave the contract without an owner, thereby removing any functionality that is only available to the owner."
      },
      "transferOwnership(address)": {
        "details": "Transfers ownership of the contract to a new account (`newOwner`). Can only be called by the current owner."
      }
    },
    "version": 1
  },
  "userdoc": {
    "kind": "user",
    "methods": {
      "getAllGames()": {
        "notice": "Retrieve all games ever created"
      },
      "getGame(uint256)": {
        "notice": "Retrieve a single game"
      },
      "newGame()": {
        "notice": "Adds a new game to storage"
      }
    },
    "version": 1
  },
  "storageLayout": {
    "storage": [
      {
        "astId": 7,
        "contract": "contracts/DiceGame.sol:DiceGame",
        "label": "_owner",
        "offset": 0,
        "slot": "0",
        "type": "t_address"
      },
      {
        "astId": 538,
        "contract": "contracts/DiceGame.sol:DiceGame",
        "label": "gameCounter",
        "offset": 0,
        "slot": "1",
        "type": "t_uint256"
      },
      {
        "astId": 556,
        "contract": "contracts/DiceGame.sol:DiceGame",
        "label": "userToGameId",
        "offset": 0,
        "slot": "2",
        "type": "t_mapping(t_address,t_uint256)"
      },
      {
        "astId": 560,
        "contract": "contracts/DiceGame.sol:DiceGame",
        "label": "roomNameToIndex",
        "offset": 0,
        "slot": "3",
        "type": "t_mapping(t_string_memory_ptr,t_uint256)"
      },
      {
        "astId": 564,
        "contract": "contracts/DiceGame.sol:DiceGame",
        "label": "userToIndex",
        "offset": 0,
        "slot": "4",
        "type": "t_mapping(t_address,t_uint8)"
      },
      {
        "astId": 584,
        "contract": "contracts/DiceGame.sol:DiceGame",
        "label": "games",
        "offset": 0,
        "slot": "5",
        "type": "t_array(t_struct(Game)552_storage)dyn_storage"
      }
    ],
    "types": {
      "t_address": {
        "encoding": "inplace",
        "label": "address",
        "numberOfBytes": "20"
      },
      "t_array(t_address)dyn_storage": {
        "base": "t_address",
        "encoding": "dynamic_array",
        "label": "address[]",
        "numberOfBytes": "32"
      },
      "t_array(t_struct(Game)552_storage)dyn_storage": {
        "base": "t_struct(Game)552_storage",
        "encoding": "dynamic_array",
        "label": "struct DiceGameFactory.Game[]",
        "numberOfBytes": "32"
      },
      "t_array(t_uint256)dyn_storage": {
        "base": "t_uint256",
        "encoding": "dynamic_array",
        "label": "uint256[]",
        "numberOfBytes": "32"
      },
      "t_array(t_uint8)dyn_storage": {
        "base": "t_uint8",
        "encoding": "dynamic_array",
        "label": "uint8[]",
        "numberOfBytes": "32"
      },
      "t_bool": {
        "encoding": "inplace",
        "label": "bool",
        "numberOfBytes": "1"
      },
      "t_mapping(t_address,t_uint256)": {
        "encoding": "mapping",
        "key": "t_address",
        "label": "mapping(address => uint256)",
        "numberOfBytes": "32",
        "value": "t_uint256"
      },
      "t_mapping(t_address,t_uint8)": {
        "encoding": "mapping",
        "key": "t_address",
        "label": "mapping(address => uint8)",
        "numberOfBytes": "32",
        "value": "t_uint8"
      },
      "t_mapping(t_string_memory_ptr,t_uint256)": {
        "encoding": "mapping",
        "key": "t_string_memory_ptr",
        "label": "mapping(string => uint256)",
        "numberOfBytes": "32",
        "value": "t_uint256"
      },
      "t_string_memory_ptr": {
        "encoding": "bytes",
        "label": "string",
        "numberOfBytes": "32"
      },
      "t_string_storage": {
        "encoding": "bytes",
        "label": "string",
        "numberOfBytes": "32"
      },
      "t_struct(Game)552_storage": {
        "encoding": "inplace",
        "label": "struct DiceGameFactory.Game",
        "members": [
          {
            "astId": 541,
            "contract": "contracts/DiceGame.sol:DiceGame",
            "label": "players",
            "offset": 0,
            "slot": "0",
            "type": "t_array(t_address)dyn_storage"
          },
          {
            "astId": 544,
            "contract": "contracts/DiceGame.sol:DiceGame",
            "label": "scores",
            "offset": 0,
            "slot": "1",
            "type": "t_array(t_uint8)dyn_storage"
          },
          {
            "astId": 547,
            "contract": "contracts/DiceGame.sol:DiceGame",
            "label": "bet",
            "offset": 0,
            "slot": "2",
            "type": "t_array(t_uint256)dyn_storage"
          },
          {
            "astId": 549,
            "contract": "contracts/DiceGame.sol:DiceGame",
            "label": "roomName",
            "offset": 0,
            "slot": "3",
            "type": "t_string_storage"
          },
          {
            "astId": 551,
            "contract": "contracts/DiceGame.sol:DiceGame",
            "label": "initialized",
            "offset": 0,
            "slot": "4",
            "type": "t_bool"
          }
        ],
        "numberOfBytes": "160"
      },
      "t_uint256": {
        "encoding": "inplace",
        "label": "uint256",
        "numberOfBytes": "32"
      },
      "t_uint8": {
        "encoding": "inplace",
        "label": "uint8",
        "numberOfBytes": "1"
      }
    }
  }
}